S00C0000726F6D6C2E737265635E
S3250000002041EA000313439B0730B510D10C680368634013604C684368634053608C68836845
S3250000004063409360C968C3684B40D36030BD0023CD5CC45C6C40D4540133102BF8D130BD98
S325000000602DE9F04F8FB001240EAD07460E46914611460DF119000D2205F8204D0593DDF81A
S3250000008068B0DDF86C8003F0DDFA8DF827400023199C38468DF826303146083C2A46234606
S325000000A0CDF800B0CDF8048000F0BEFA38BB0BEB040308EB040A8DF8260031468DF8270015
S325000000C02A468DE808043846082300F0ADFAB0B9189B38468DE818010AAC31464A46059B64
S325000000E0039400F05FF850B920465146082203F095FA002814BF4FF0FF30002001E04FF0C1
S32500000100FF300FB0BDE8F08F2DE9F04F8DB04FF001090CAC07460E46904611460DF1110057
S325000001200D229A46DDF860B008AD04F8209D03F089FA002338468DF81E3031468DF81F3022
S325000001404246169B0093179B01935346CDF808B0039500F027F8F8B9384631462246082391
S325000001600095019500F060FAB0B9294608221A9803F068FA199B0193384631462246179BA4
S325000001808DF81F90CDF800B000F04EFA002814BF4FF0FF30002001E04FF0FF300DB0BDE83E
S325000001A0F08F00BF2DE9F04788B010AFB3F57F4F05460C461E4697E8800677D219238DF831
S325000001C0003016B159238DF80030E40011460DF101000D2203F036FA64094FEA1923063449
S325000001E08DF80E30284621466A4604AB8DF80F900AF036FC56B39DF8103083EA16238DF8A9
S3250000020010309DF8113073408DF81130022312E008A917F8010BCA1812F8101C0133414099
S32500000220102B02F8101C06D104AA1346284621460AF016FC002316F1FF36E9D21A0705D088
S3250000024004AA2846214613460AF00AFC4FEA1917D04600260DE004A841460246FFF7E0FEDB
S3250000026004AA2846214613460AF0FAFB08F110080136BE42EFD10AEB0616002304E0D15C60
S32500000280F05C4140D154013309F00F018B4204AAF5D321B12846214613460AF0E1FB139865
S325000002A004A9082203F0CEF9002001E04FF0FF3008B0BDE8F08700BF2DE9F04F85B0944641
S325000002C004460E9D18460D228B4600211E46CDF804C003F03BFA00211E22284603F036FA9D
S325000002E0278807F44073A3F540714B4207F00C0243EB0103082A0CBFC7F3C0194FF00009B6
S32500000300DDF804C05FFA89F9B9F1000F06D0002B0CBF18221E2234F802A000E0CA46002B7B
S3250000032014BF06220022B9F1000F00D0023202F120001099086002F116000F991832086056
S32500000340304604EB020800F801CB04F10A01039206220293CDF804C003F074F998F8072072
S325000003600399F27198F80620029B327298F80520DDF804C0727298F80420B27298F80120C6
S32500000380F272625C3273BBF1000F0BD1BCF1FF0F02D01CF0100F02D04CF2FF7204E04CF29E
S325000003A08F7201E04FF2FF723A40211D2A70120AA81C6A701222029303F044F9E18A002211
S325000003C0029BBBF1000F02D101F00F0100E01146297505F116006A7533B104F11801062211
S325000003E003F030F905F11C00B9F1000F0FD0BBF1000F06D10AF00F0A80F801B080F800A04B
S3250000040005E080F800A04FEA1A2A80F801A005B0BDE8F08F2DE9F04192B01D4610AB04AC13
S32500000420019311AB064688469DF86010029328460CAB17469DF864200094FFF73DFF119BA5
S3250000044030464146ED18FF1A0CAA109B0094019702950395FFF704FE002818BF6FF0010068
S3250000046012B0BDE8F08100BF2DE9F04194B01C4612AB06AE019313AB15469DF86C20074666
S3250000048088469DF86810029320460EAB0096FFF713FF139A38464146A318AA1A64190192E8
S325000004A00EAA02930393129B00960494FFF72CFE002814BF4FF0FF30002014B0BDE8F081F5
S325000004C0F0B5C9B0074618464E9B0D464F9E1BB103F10F04240900E00124B3EB041F04F169
S325000004E0805101F1FF3104D1104606EB01113CAA1BE009015A1A4FF0000E07E0731813F8AC
S325000005000EC03CAB0EF803C00EF1010E9645F5D148A98B18802103F8301C01E000238B5449
S3250000052001320F2A3CA9F9D90A46FF00FFF778FD0021102244A803F009F929463A46684607
S325000005407F090AF023FD063701250BE0314640AAFFF766FD6846394640AA44AB0AF080FA71
S3250000056001351036A54244A8F0D33CA940AAFFF757FD6846394640AA44AB0AF071FA5098F7
S3250000058044A9102203F05EF849B0F0BDF0B58DB006460F4614461D461846114608AB04AAF1
S325000005A000F00CF8129B02932846214604AA08AB00970196FFF784FF0DB0F0BD30B585B09E
S325000005C014461D46164A6B4600F086F80F2300221DF8031042EA4102E254CA0913F1FF33AF
S325000005E0F6D29DF90030002B04DA20460D492246FFF716FD0F230022E15C42EA4102EA54F3
S32500000600E25CD20913F1FF33F6D294F90030002B04DA284603492A46FFF702FD05B030BD36
S32500000620345C0800245C08002DE9F04F89B0B3F5801F804689461C46DDF848B045D84FEAA5
S32500000640C909114604A810224FEA591902F0FAFF4FEA141A09F10609139F5E46002519E013
S325000006606B464046494604AA0AF0FAF9304669463A46FFF7D5FC9DF81F300133DBB28DF87D
S325000006801F3023B99DF81E3001338DF81E301036103701355545E3D12D01139B14F00F043B
S325000006A00BEB05061D4413D06B464046494604AA0AF0D6F90023F25C1DF803104A40EA5451
S325000006C00133A342F7D1002003E04FF0FF3000E0204609B0BDE8F08F70B5C500BCB01446EF
S325000006E068462A461E460AF051FC690968460631224633460AF0B4F93CB070BD2DE9F04FDE
S325000007001E46A0F11003A2F1080A102BADF5297D4FEADA046CD8394D9D4069D5B2F5C47FBD
S3250000072066D8530764D14FF00509C5002A4664A809FB04490AF066FB31460822A0A802F0D1
S3250000074081FF06F1080102A8524602F07BFF6D095FFA84FC063566465FFA89F94FF0060B04
S32500000760D4460195E700C846A246254624E09DF8873288EA030308228DF8873202ABDC19A7
S325000007802146A2A8CDF800C002F05CFFA4AB64A80199A0AA09F0A0FFA4A90822A0A802F048
S325000007A051FF08F1FF382046A6A9082202F04AFFDDF800C05FFA88F80AF1FF3A083FBAF105
S325000007C0FF3FD4D1C6EB0909BBF1010B2C465FFA89F9C7D1A0A80A490822E24602F01EFFD4
S325000007E030B9B29802A9524602F02CFF584600E001200DF5297DBDE8F08F00BF00808080B6
S32500000800445C08002DE9F04F1D46A0F11003102BADF5277D14464FEAD20A61D8334A9A404E
S325000008205ED5B4F5C07F5BD814F0070858D14FEAC00B5A4662A80AF0A9FB2D4908229EA8F6
S3250000084002F000FF02A82946224602F0FBFE4FEA5B1B5FFA8AFC66460BF1060B4FF00609A0
S32500000860A4462BE002AB03EBC40529460822A0A8CDF804C002F0E6FEA2AB62A859469EAA9B
S325000008800AF0EEF8A4A90822284602F0DBFE9EA8A2A9082202F0D6FEDDF804C09DF87F3262
S325000008A001347B408DF87F3201375445FFB2D9DBB044B9F101095FFA88F802D047460024D2
S325000008C0F2E79EA90822B098644602F0BBFEB09B02A903F10800224602F0B4FE484600E0BF
S325000008E001200DF5277DBDE8F08F00BF00808080445C080070B506460546002422E0D5F871
S325000009007433D3F8082992071AD00322C3F80429D3F808299007FBD1D3F8002821460C4891
S3250000092042F00102C3F80028D3F80028D3F8002822F00102C3F80028D3F8003802F02CFF9B
S3250000094001340435D6F870339C42D8D370BD00BF6E1A0900D0F8543201B932B1D3F80804EA
S3250000096020EA01010A43C3F80824D3F80804704773B5D0F854420E46D4F80038D90729D4E8
S325000009801F2502E00A2006F0E3FDD4F8043863B1013DF7D140F2E93502E00A2006F0D8FDE2
S325000009A0D4F804380BB1013DF7D10120C4F80008D4F800380193019B06F0CAFDC4F8086469
S325000009C00A20D4F808340193019B02B0BDE8704006F0BEBD02B070BD2DE9F34106460F466D
S325000009E01546D0F854424FF01F0802E00A2006F0AFFDD4F80438019313B1B8F10108F5D14C
S32500000A00019B23B1019A3A483A4902F0C5FE01230A20C4F800384FF01F0806F099FD02E0F5
S32500000A200A2006F095FDD4F8043813B1B8F10108F6D147F003031D43C4F808541F25D4F8F4
S32500000A4008340193019B02E00A2006F081FDD4F8043801930BB1013DF6D1019B23B1019A3C
S32500000A602548244902F098FE0A2522E00A2006F06FFD01E04FF01F08D4F80438019313B1AA
S32500000A80B8F10108F2D1019B23B1019A1B48194902F082FE00234FF01F08C4F8003802E03A
S32500000AA00A2006F055FDD4F8043813B1B8F10108F6D1D4F8003813B1013DDBD100E04DB9E1
S32500000AC0D6F8CC300E480B4906EB8306D6F8D42002F062FE47F001070120C4F80874D4F8AA
S32500000AE008340193019B02B0BDE8F04106F030BDEA190900DC190900081A0900261A09009B
S32500000B00431A0900D0F8543201B932B1D3F8000520EA01010A43C3F80025D3F800057047EE
S32500000B200F2970B5049C17D801F1220500EB85056E6826B900EB8106D6F814616E6000EB12
S32500000B408100D0F88C1003B924B1885820EA03031C438C50885870BD002070BD0F2910B597
S32500000B6010D801F1220300EB83035C6824B900EB8104D4F814415C6000EB8100D0F88C0051
S32500000B80801810BD002010BDD0F8CC2000EB820393F81B1300F0DCB8D0F85432D3F8000182
S32500000BA000F01F00704700BFD0F85432D3F80001000A00F01F007047D0F85432D3F808247B
S32500000BC002F00302012A06D1D3F8000800F0010080F0010070470020704700BFD0F8D020DC
S32500000BE0034670B5102A28BF1022914224D200EB8102D2F8145101F1A60250F8224001F192
S32500000C00220200EB8200466806B9456003EB8202506801F19602C3F8880053F8225015B9A9
S32500000C200CB143F8224053F82220C3F85422C3F88800C3F8CC1070BD002070BD30B5D0F895
S32500000C40540202B93BB18C0850F8245025EA0202134340F82430890850F8210030BD00BFA6
S32500000C60704700BF2DE9F04717460122134606460D46DDF82880DDF82CA0DDF8309000F090
S32500000C8051F800F00603042B044609D100F47063B7EB132F04D1089B00F0C0029A4204D034
S32500000CA02B680024043B2B6038E020F47E6323F01F03099A136010F0080308D000223046DA
S32500000CC02946134600F02EF8C8F8000001E0C8F8003004F030030027302BC9F8007016D1DE
S32500000CE03A463B463046294600F01CF820F47E6323F01F030207CAF800300FD53046294616
S32500000D003A463B4600F00EF8C9F8000006E04FF480521B0912FA03F3CAF800302046BDE8F7
S32500000D20F08700BFF8B504460D4616461F4620460CF028FB2B6853F8040B2B603EB1C307B6
S32500000D40F5D50F2803D000EA0603BB42EFD1F8BD0846704708B560B1002907DB4368026861
S32500000D60C918914204DD034802F016FD002008BD012008BD8E1A090038B50D46022104465F
S32500000D80FFF7E8FF50B163680220A268D15CD2185278023342EA01222A80636038BD00BFF2
S32500000DA038B50D4601210446FFF7D4FF30B163680120A268D25C01332A70636038BD00BF6E
S32500000DC070B505460C461646FFF7C4FF50B16B683046A9682246C91802F034FC6B681B1969
S32500000DE06B6000E00446204670BD00BF00230160436082600120704738B50D460221044618
S32500000E00FFF7A8FF50B163680220A268D118D25C4978023342EA01222A80636038BD00BFBA
S32500000E202DE9F3410D460DF10601044616461F46FFF7E2FF804620B92348454602F0ACFCF9
S32500000E403EE094E80C00BDF806109A42CCBFC3EB0200002081420ADD9A42C8BFC3EB020225
S32500000E601A48D8BF002202F097FC002528E029462046FFF795FF054660B120463146FFF711
S32500000E808FFF054630B14FB120463946FFF788FF054618B90C4802F07FFC11E0002F0CBF68
S32500000EA002270327BDF80630DF1B089B0125BFB2A1681F806368099AC918DF191160676093
S32500000EC02846BDE8FC8100BFAD1A0900BB1A0900704700BF2DE9F043082285B004460E4653
S32500000EE008460025002102F031FC2F462CE06760DF1B032F2BDD03A92046FFF77DFF2046D3
S32500000F000DF10E01FFF778FF94E80C00BDF80E809A42CCBFC3EB02020022904517DC4DF640
S32500000F20DD51BDF80C00884203EB0807A2680BD102EB03090135684608F10401A9F1040294
S32500000F40FFF754FF86E8000323689F42CFDB15B13046FFF7BDFF284605B0BDE8F08300BFD3
S32500000F6037B50C46054608220846002102F0EEFBA31C28460093231D21460193621C0023D2
S32500000F80FFF74EFF3EBD00BF37B50C4605460C220846002102F0DAFB231D2846009304F12B
S32500000FA0080321460193621CA31CFFF739FF3EBD37B50D4601AA03210446FFF701FF78B148
S32500000FC001A81049032202F029FB48B920460DF10701FFF7E5FE18B19DF80730092B04D0EB
S32500000FE0094802F0D9FB00200BE020462946FFF703FF044620B9044802F0CEFB204600E08C
S3250000100001203EBDDA1A0900AD1A090037B50D460DF106010446FFF7C3FE68B19DF80630B8
S325000010206C2B09D120460DF10701FFF7B9FE18B19DF80730022B04D0084802F0ADFB002080
S325000010400BE0204629468FF05BF8044620B9034802F0A2FB204600E001203EBDAD1A0900C9
S32500001060F8B504460D461646FFF7C6FE074620B90D4802F091FB3846F8BD94E80A002A88A6
S325000010809942CCBFC3EB01010021914204DA064802F082FB0020F8BDA1680120C9189B1812
S325000010A031606360F8BD00BFAD1A0900704700BF70B50546202208460C46002102F046FB76
S325000010C095E80C009A4202DDD31A022B03DC3C4802F062FB71E021462846FFF761FE611C02
S325000010E02846FFF75DFEA11C2846FFF759FE2378042B62D163780A3B032B5ED8DFE803F078
S32500001100020F582C2846211DFFF780FF064600283CD0284604F1100104F1140217E02846AF
S32500001120211DFFF769FE064680B32846A11DFFF763FE064650B3284604F10801FFF766FFF6
S32500001140064618B3284604F1140104F11802FFF787FF064660BB19E02846211DFFF74CFE23
S32500001160064698B12846A11DFFF71AFE064668B1284604F10801FFF73FFE064630B12846FB
S3250000118004F10C01FFF742FF064618B90C4802F003FB13E0284604F1180104F11C02FFF737
S325000011A05FFF054620B906482E4602F0F5FA05E02046FFF77BFF012600E00026304670BD79
S325000011C0AD1A0900704700BF73B5102204460D460846002102F0BAFA204603216A46FFF787
S325000011E0EFFD80B168462449032202F017FA064648B920460DF10601FFF7D2FD18B19DF8AE
S325000012000630092B04D01D4802F0C6FA002032E0636827E06360D31A022B26DD0DF1070189
S325000012202046FFF7BDFD01A92046FFF7E5FD23686168BDF804208B42CCBFC1EB0303002350
S325000012409A4212DCA0688B1841189DF80700022802D00D2806D102E02A60696001E0AA60F6
S32500001260E960013622689342D4DB30461EB12846FFF7A8FF30467CBDDA1A0900AD1A09000E
S3250000128070B50446022208460D46002102F05EFA94E80C009A4218DDD31A022B15D12046EA
S325000012A02946FFF77DFD064620B90A4802F074FA304670BD2046691CFFF772FD044630B94C
S325000012C0044802F069FA204670BD002070BD012070BD00BFAD1A0900F7B5054652220846F1
S325000012E00C46002102F032FA95E80C009A426FDD284606212246FFF763FD0646002846D0C9
S325000013002846A11DFFF738FD064600283FD0082128466218FFF754FD0646002837D02846AC
S3250000132004F11001FFF73CFD064600282FD0217C042912D92848042233E004EBC60228467C
S3250000134008211132FFF73CFD074620B923483E4602F022FA3DE0013600E00026237C9E42F0
S32500001360EBDB284601A9FFF707FD28B141F21103BDF804209A4203D0184802F00DFA12E09C
S3250000138028460DF10601FFF7F7FC064618B9134802F002FA1DE0BDF80610202905D910483E
S325000013A0202202F0F9F9002613E0284604F13102FFF706FDBDF806304FF00005984204D07C
S325000013C006482E4602F0E8F903E0241884F8315001263046FEBD00BFDE1A0900AD1A09006E
S325000013E0011B090010B588B100290ADB836853B190E80C005C18944207DD0548D21A02F0EA
S32500001400CBF9002010BD184610BD012010BD00BF1D1B090038B50D4601210446FFF7E2FF79
S3250000142028B163680120A268D5540133636038BD70B505460C461646FFF7D4FF50B16B6807
S325000014403146A8682246C01802F0FCF86B681B196B6000E00446204670BD00BF2AB100238D
S32500001460016043608260012070471046704700BF38B50D4602210446FFF7B4FF48B16368C2
S325000014800220A268D5545A1C2D0A0233A1688D54636038BD2DE9F843BDF824700E46002B54
S325000014A00CBF02210321C919044689B2904699464568FFF7DDFF31462046FFF7ABFF204696
S325000014C04146FFF7A7FFB9F1000F04D020469DF82010FFF79FFF27B1204639460A9AFFF740
S325000014E0A7FF6068401BBDE8F88300BF1FB500240193069B029323460094FFF7CBFF04B00B
S3250000150010BD00BF1FB50093BDF818300193079B02930123FFF7BEFF05B000BD2DE9F0417A
S3250000152015460E464DF6DD51044698464768FFF79FFFA91D204689B2FFF79AFF03210B4AAB
S325000015402046FFF775FF09212046FFF763FF20463146FFF78DFF25B1204629464246FFF745
S3250000156067FF6068C01BBDE8F08100BFDA1A090070B504460E4604214568FFF74BFF0C2188
S325000015802046FFF747FF20463146FFF743FF6068401B70BD2DE9F0479DF82490BDF82C6067
S325000015A004460D46042190469A464768FFF732FF0D212046FFF72EFF29462046FFF72AFF2C
S325000015C041462046FFF754FF51462046FFF722FF2046BDF82010FFF74BFFB9F1000F04D0A3
S325000015E0204649460A9AFFF723FF20463146FFF73FFF26B1204631460C9AFFF719FF6068F3
S32500001600C01BBDE8F08700BF2DE9F843BDF8206004460D46042117469946D0F80480FFF748
S32500001620F9FE0A212046FFF7F5FE20462946FFF7F1FE27B1204639464A46FFF7F9FE2046D9
S325000016403146FFF715FF26B120463146099AFFF7EFFE6068C8EB0000BDE8F8832DE9F047E1
S325000016609DF82090BDF8286004460D46042190469A464768FFF7CEFE0B212046FFF7CAFEA9
S3250000168029462046FFF7C6FE41462046FFF7F0FE20465146FFF7ECFEB9F1000F04D0204614
S325000016A04946099AFFF7C4FE20463146FFF7E0FE26B1204631460B9AFFF7BAFE6068C01BDF
S325000016C0BDE8F087F8B5836805461BB1154B164F1E6802E0154B164F1E683C4609E0143012
S325000016E005F11401062201F099FF246804F5F264043420680028F2D10BE00130B04205DBB4
S325000017000C48314602F048F80020F8BD03F5F26704373B68002BF0D13D600120C5F8943790
S32500001720F8BD00BF1C071800C807180008071800CC071800771B09001829F7B515461E46B4
S3250000174001D102B12BB9374803B0BDE8F04002F023B800274FF4F3601F6039468FF060FAB2
S32500001760044600285CD039464FF4F36201F0EEFF6B68A36005F11201AB680622236004F13E
S325000017801400EB6863602B8AA38101F05BFF0423A7762046A3834FF4FA63E3834FF0FF33AE
S325000017A0238400F097F92046FFF78CFF08B91E4823E094E8030004F10E0210F0A9FC00289A
S325000017C002DA1A4801F0E8FF206822461849194B15F078FD606278B1206822461649174B22
S325000017E015F070FDA06238B1206822461449154B15F068FDE06258B9134801F0CDFF20469E
S3250000180000F068F9204603B0BDE8F0408FF010BA002120460A460B46009100F0C9F934603B
S3250000182003B0F0BD441B0900E31B0900FC1B0900791D0000171C09009D1A00003D1C0900C8
S325000018401D1D0000501C0900251C090010B5044610B1182900D122B92448BDE8104001F07A
S325000018609BBF436A1A685968906815F0F5F9A36A1A685968906815F0EFF9E36A1A68596868
S32500001880906815F0E9F9636A1A685968906815F05BFA606A06F04CF8A36A1A6859689068B5
S325000018A015F052FAA06A06F043F8E36A1A685968906815F049FAE06A06F03AF8204600F0FE
S325000018C009F9D4F8700708B18FF0B2F9D4F87C0708B18FF0ADF9D4F8900708B18FF0A8F971
S325000018E02046BDE810408FF0A3B900BF441B090038B5044610B1182900D122B91148BDE8A2
S32500001900384001F049BF104D2A6812B9D0F8802762B1D4F88C2719688A4207DC59680A603A
S325000019209868D4F8901701F08DFE02E000225B681A602B6823B12046BDE8384000F0E4B8FB
S3250000194038BD00BF441B09001407180010B1182900D112B9064801F01FBF064A126812B9E2
S32500001960D0F880270AB1D0F88C271A60704700BF441B09001407180010B1182900D112B993
S32500001980024801F009BF536843607047441B090010B1182900D112B9034801F0FDBE036BBE
S325000019A00BB9928802847047441B090010B1182900D112B9034801F0EFBE036B0BB99288CB
S325000019C082837047441B090070B51546044610B1182900D122B90F48BDE8704001F0DCBE2E
S325000019E0066BAEB9D0F8700718B18FF021F9C4F87067686800218FF013F9C4F8700738B13D
S32500001A006A68C4F86C27A968BDE8704001F01ABE70BD00BF441B090038B51446054610B1C9
S32500001A20182900D122B90A48BDE8384001F0B4BE00F01EF930B12B6B4BB928466168A2681E
S32500001A4000F0BAFAA068BDE838408FF0F1B838BD441B090010B1182900D112B9034801F058
S32500001A609BBE036B0BB99288C2837047441B090007B510B1182900D12AB9074803B05DF88E
S32500001A8004EB01F089BE002202211346009200F08FF803B000BD00BF441B090007B50022FD
S32500001AA009211346009200F083F80EBD38B505460C4611B10C2905D838BD016300F0AAF88C
S32500001AC06C6338BD0248BDE8384001F065BE00BFD11B090081680A4A0A4B002918BF134622
S32500001AE009E0824204D1D0F8942701201A60704702F5F26304331A68002AF2D1104670478A
S32500001B00C8071800CC07180038B500250446C0F88057D0F8900718B18FF08AF8C4F8905736
S32500001B20C4F88857C4F88C5738BD00BF70B58CB004460E461546202101AA09A8FFF78EFC3A
S32500001B400021324609A82B468EF0FAFA20469DF828100B9A8EF0ECFA0CB070BD38B50446F6
S32500001B600D4600F057F80023204663632946BDE8384000F085BA00BF38B50B4B05460B4C1F
S32500001B80002918BF1C460BE014302946062201F045FD08B9206838BD246804F5F264043493
S32500001BA020680028F0D138BDC8071800CC07180070B5056B88B00446082D05D80C9E00967E
S32500001BC00D4E56F82550A847636B226B9A4211D0E26BA56823631AB113B9204600F0C4FC4D
S32500001BE045B1236B33B908AA204642F8183D1821FFF72CFE08B070BD4C5C0800014B18680E
S32500001C00704700BF18071800014B1868704700BF0C07180070B50446D0F87C0720B18FF09A
S32500001C2007F80023C4F87C37636A00251A685968906815F011F8A36A1A685968906815F085
S32500001C400BF8E36A1A685968906815F005F86563658704F14400E563294625644FF4E5623A
S32500001C6001F074FD84F8745784F8845770BD00BF0B4B1B6803E083420ED0D3F89437002B52
S32500001C80F9D1084B1B6803E0834207D0D3F89437002BF9D1184670470120704701207047CF
S32500001CA0C8071800CC07180020B1007AD0F1010038BF0020704700BFF0B5A7B004460E4618
S32500001CC017468EF045FF036805461BB3062202A804F11401019401F0B5FC94F838308DF8CF
S32500001CE00E300023802E0493ADF8146006D90A48802101F051FD8023ADF814303946BDF84E
S32500001D0014200DF1160001F09DFC2B686868214601AA984727B0F0BD571B090007B50022BA
S32500001D200A2113460092FFF743FF0EBD2DE9F041A6B00446884617468EF00AFF0368064634
S32500001D40BBB126AD04F11401062202A845F8944D01F078FC94F838308DF80E300323CDF83D
S32500001D60148021468DF818702A46049370683368984726B0BDE8F08107B5002208211346B0
S32500001D800092FFF715FF0EBD026C838B10B59A42B0F84C3086B004462ADA009300F14E033C
S32500001DA061682246019300F154030293B0F86030039300F164030493A36C006810F0F2F95C
S32500001DC010B1104801F0E8FC236C2046E16D0133236400F013FDB4F84C2082B1636A196878
S32500001DE088685968002306B0BDE8104014F010BF2BB94F2106B0BDE81040FFF7AFBE06B073
S32500001E0010BD00BF631C09007FB5436A04460D461A685968906814F01FFF94F83820AB78C6
S32500001E20934206D020463C2104B0BDE87040FFF795BED4F8780794F874379D02401BB0F5BB
S32500001E40806F02D880B2002102E04FF480600121D4F87C67751911B143F0800301E003F0B0
S32500001E607F030093E18BA37E0290019320460023039500F00FFC0423636304B070BD00BFEB
S32500001E8038B5436A04460D461A685968906814F0E3FEAB7894F838209A4201D0204643E0A8
S32500001EA0A98821B12046BDE83840FFF757BEAB79190641D503F07F0394F884179942204655
S32500001EC031D1298BEA6900F0A3F8224B1B6823B12046298BAA79FFF729FF2B893BB920463B
S32500001EE0E18B94F8382000F0B5FB03230FE0228C9A420ED3A16A184A086812684968002A3A
S32500001F0008BF1A468068002314F082FE0723636303E020460121FFF721FE94F8843701331A
S32500001F2084F8843738BD01D23C21BCE7E18B00F091FB0323636338BD2046298BEA6900F076
S32500001F4067F801232046C4F88037BDE8384000F02FBB00BF14071800D40718002DE9F043FA
S32500001F60A7B006460C4691468EF0F2FD03680746FBB1637826AD0D2B0CBF94F806804FF0BC
S32500001F80000806F11401062202A845F8946D01F059FBA3788DF80E300223CDF818903146EB
S32500001FA08DF81C802A460493637805933B687868984727B0BDE8F08370B50446D0F87C0775
S32500001FC00D46164620B18EF033FE0023C4F87C37AB0500219B0D5A1A534243EB0203C3EBD7
S32500001FE0952384F874172846C4F8785784F875378EF016FEC4F87C0710B9C4F8780770BDF9
S325000020003146D4F87827BDE8704001F01BBB00BF184B70B51B68164604460D46D0F88C277E
S3250000202013B10AB1144812E0D4F888178A1A954211D90BB9A80000E0284640180021C4F80E
S3250000204088078EF0EDFDC4F8900720B90B48BDE8704001F0A1BBD4F88C372A46D4F8900700
S325000020603146C01801F0EEFAD4F88C375D19C4F88C5770BD14071800971B0900C11B09008E
S3250000208001234187C36370474B1E0B2B0CD8DFE803F00D0D0D0D0D0D0D060D0D0609418FDA
S325000020A0FFF75CBDFFF770BEFFF700BD704700BF4B1E30B5044685B015460B2B67D8DFE85A
S325000020C003F06B061B6B556B6B6B6B6B6B6BFFF71BFD324B1A78511CB4F86C0784F8382051
S325000020E01970A37E0090E18BD4F870070190204600F012FB012348E0AB7880F83830281D69
S32500002100FFF7D2FD014668B93B2394F83820009063872B7B029001933B230390204600F0BD
S325000021202FFB31E0298A6A692046FFF7C5FD2068FFF76AFD054628B1204605B0BDE8304081
S3250000214000F0E4B92068FFF759FDE18B94F8382002950395034680B2591800902B46A07E8E
S325000021600190204600F00CFB05230EE00021AA783C2380F8382043870091837E01933C2394
S325000021800291039100F086FA0823636304E005B0BDE83040FFF78ABC05B030BDD007180036
S325000021A04B1E10B50B2B15D8DFE803F0181818181806180B181818101146BDE81040FFF7D3
S325000021C05FBE3E21BDE81040FFF7C8BCBDE81040FFF7DABDBDE81040FFF768BC10BD00BFF1
S325000021E04B1E10B504460B2B2DD8DFE803F0313131310631310C3131122720461146BDE837
S325000022001040FFF701BE20463E21BDE81040FFF7A5BC94F8743794F875279A420AD1636ABF
S325000022201A685968906814F017FD2046BDE8104000F0BEB9013384F8743710BD2046BDE850
S325000022401040FFF7A1BD2046BDE81040FFF72EBC10BD00BF4B1E70B5044615460B2B46D886
S32500002260DFE803F0494949064949493F49494941436A1A685968906814F0EEFCAA7894F803
S3250000228038309A4202D020463C2103E0AB882BB120461946BDE87040FFF760BCEE8866B9AC
S325000022A02046A98AAA69FFF7B3FE01232046C4F88037BDE8704000F07BB9228CB2420DD3CD
S325000022C0A16A0D4A0868126849688068002A08BF324614F09DFC0723636370BD2046012168
S325000022E0D8E73E21D6E7BDE87040FFF74DBDBDE87040FFF7DBBB70BDD40718004B1E10B579
S3250000230004460B2B27D8DFE803F02B2B2B2B062B2B0C2B2B122120461146BDE81040FFF739
S3250000232073BD20463E21BDE81040FFF717BC94F87537002B14D1636A1A685968906814F090
S325000023408BFC2046BDE8104000F032B92046BDE81040FFF719BD2046BDE81040FFF7A6BBE1
S3250000236010BD00BFF0B585B01F464B1E044615460A9E0B2B5BD8DFE803F05F5F5F5F065FD2
S3250000238024325F384F55436A1A685968906814F063FCD4F8781731B12046294605B0BDE8EF
S325000023A0F040FFF731BD3D2394F8382020466387A37E01933D2300910291039100F06AF94F
S325000023C03AE0C36A1A685968906814F045FC20463946324605B0BDE8F040FFF7EDBD3E214A
S325000023E005B0BDE8F040FFF7B9BB436A1A685968906814F031FC3D220021A37E62872046DA
S32500002400019394F838203D2300910291039100F041F9082363630FE0D0F8783763B102236C
S32500002420436309E005B0BDE8F040FFF7ADBC05B0BDE8F040FFF73ABB05B0F0BD0C2938B525
S32500002440044615461ED8124B8B4020D44FF480038B400FD44FF000738B4013D5836A1A6877
S325000024605968906814F0F8FB20462946BDE83840FFF706BDC18B90F8382000F0EBF80323D6
S32500002480636338BD2046BDE83840FFF70FBB38BD0000B87D0C297FB5089D04461E462BD84F
S325000024A0194B8B402ED44FF400138B4014D44FF080738B4020D5C36A1A685968906814F07E
S325000024C0CBFB204631462A46FFF776FD204604B0BDE8704000F01AB8002190F838203D23E8
S325000024E043870091837E01933D230291039100F047F90823636305E0204604B0BDE87040EA
S32500002500FFF7D4BA04B070BD0000D87E30B5D0F8785785B00446B5F5806F4FF0000205D848
S32500002520ADB2D0F87C07134611460CE00D4B1B8880F8742723B1C18B15465918104602E01D
S3250000254018461D461946009394F83820A37E0390019320460023029500F012F90223636390
S3250000256005B030BD0407180070B5A6B004468EF0EFFA03680646C3B126AD04F11401062234
S3250000258002A845F8944D01F05DF894F838308DF80E30042321460493638FADF8143000234D
S325000025A070682A46E3633368984726B070BD00BF10B50446FFF72EFB002120466163BDE82D
S325000025C01040FFF75DBD00BF2DE9F04786B00FAE0446002096E840050E9F04F14E052064F0
S325000025E004F15409A16428461946A4F84C20062201F028F839460622484601F023F8B4F883
S325000026004C308DE828021FFA88F3E6652246039394E80300A36CCDF810A00FF0C3FD10B139
S325000026200B4801F0B9F82046E16D00F0E7F8B4F84C204AB1636A196888685968002306B031
S32500002640BDE8F04714F0E4BA06B0BDE8F08700BF631C0900F0B500F1640589B004460E4607
S32500002660174605A82A464FF4E161FEF7F7FE394605A8FEF77DFF0C2204F11403A1890192D7
S32500002680324600930395206602902046FFF79CFF09B0F0BD2DE9F04395B09DF870600446DF
S325000026A088461746202106AA0EA89946FEF7D6FE04F164059DF874200EA87F21FFF736FA97
S325000026C02A4611A84FF4E161FEF7C8FE0023394600939DF83C3001934A46109B11A8029338
S325000026E0BDF8783003931F9B04933346FEF752FF04F1140372B2A18900930D2308EAE2726E
S32500002700019304F10E030395206602902046FFF75BFF15B0BDE8F083F0B593B004461D4641
S325000027200E461746202104AA0CA8FEF797FE0CA800212A4604F16405FFF7F8F92A460FA804
S325000027404FF4E161FEF78AFEBDF8603000939DF83420199B394601930FA80E9BFEF754FF41
S325000027600A2204F11403A1890192324600930395206602902046FFF727FF13B0F0BD00BFF2
S325000027802DE9F04192B004460E461746202104AA0CA89846FEF762FE04F164059DF8642062
S325000027A00CA87F21FFF7C2F92A460FA84FF4E161FEF754FE9DF83430009339460E9B4246DF
S325000027C00193BDF8683002930FA81B9B0393BDF86030FEF743FF04F11403A18932460093BD
S325000027E00B230395019304F10E03206602902046FFF7EAFE12B0BDE8F08100BF70B5A6B005
S3250000280004460E468EF0A4F903680546F3B1062204F1140102A8019400F014FF94F8383037
S325000028208DF80E30012394F87527059621460493236E069394F874379A4218BF43F0800320
S3250000284001AA8DF81C302B686868984726B070BD10B588B00B4C0194002403900DF11600FD
S3250000286004911946ADF814200622029400F0EAFE2046182101AA07ABFEF75EFF079808B04A
S3250000288010BD00BF391700007FB506AA054B182142F8183D6A460023FEF7D8FF012007B0E3
S325000028A000BD00BF4D18000010B504468AB020B9084800F071FF20460AE0079118210892A4
S325000028C001AA099307AB044C0194FFF711F801200AB010BD441B0900F118000010B50446ED
S325000028E088B020B9064800F057FF204605E0182101AA07ABFFF72AF8079808B010BD00BF51
S32500002900441B0900014B1860704700BF100718003C292DE9F04307469BB015461C4603D00A
S325000029204B2940F08B8013E01E68936823B1052B40F084800C2400E00B243046FFF798F9FA
S3250000294000287BD00022304600922146134673E05B881A0A42EA032398B202F009F9229E6A
S3250000296004F11002103E3146804616A8FEF73EFA002863D016A802A9FEF79AFB00285DD031
S325000029809DF809300A3B032B58D8DFE803F0020B05080121032407E00121052404E000216C
S325000029A0062401E00021042405F11800FFF7E4F8814650B19DF809300A2B33D100231AAA27
S325000029C0182142F8403DFEF741FF9DF809300A2B01D00C2B32D11B4B1B680BB91A481EE0B1
S325000029E04FF00009012305F1180106220DF15200CDF84090119395F82F3012971393ADF8C5
S32500002A00508000F01FFE4846182110AA19ABFEF793FEDDF86490B9F1000F03D10B4800F06F
S32500002A20BBFE0BE0484602A93246FFF797FA00234846214602AA0093FFF7BAF81BB0BDE845
S32500002A40F08300BF10071800771C09009E1C090010B5044686B020B9074800F09DFE204652
S32500002A6008E0064B6A460093002301911821FEF783FF012006B010BD441B090079190000D1
S32500002A8010B5044686B020B9084800F085FE204609E0074B6A4600930023ADF80410182156
S32500002AA0FEF776FF012006B010BD00BF441B09009119000010B5044686B020B9084800F0D3
S32500002AC06BFE204609E0074B6A4600930023ADF804101821FEF76AFF012006B010BD00BFCD
S32500002AE0441B0900AD19000030B5154687B0044620B90F4800F050FE204616E00D4B084671
S32500002B000191002100938EF08BF8029068B12946019A00F097FD204618216A460023FEF7C8
S32500002B2053FF02988EF084F8012007B030BD00BF441B0900C919000030B5154687B004461A
S32500002B4008B101B122B90D4800F026FE002013E00B4B08460191002100938EF061F802905A
S32500002B6050B12946019A00F06DFD204618216A460023FEF751FF012007B030BD441B090006
S32500002B80191A000010B5044686B020B9084800F003FE204609E0074B6A4600930023ADF8F1
S32500002BA004101821FEF756FF012006B010BD00BF441B0900551A000010B5044686B020B920
S32500002BC0084800F0E9FD204609E006AA064B182142F8183D6A460023FEF74AFF012006B0C9
S32500002BE010BD00BF441B0900711A000038B504460D468DF0ADFF05604460012038BD00BFBF
S32500002C0008B58DF0A5FF0021082200F09FFD012008BD00BF38B5438A03F00303012B04462B
S32500002C200BD1036AB3B1203000F086F800210422054600F08BFD284602E0806804F066FE89
S32500002C4040B1A3890133E2899BB29A42A38105D2E38138BD238A00200133238238BD00BFDB
S32500002C6010B50446084681B1638A03F00303012B04D104F1200000F053F801E004F058FE5D
S32500002C80A389013B0020A38110BD6FF0010010BD38B505460C4614220846002100F056FD16
S32500002CA0AB68A3602946AB890822E3812046EB8923822B8A638200F029FE0023E3716B8A2B
S32500002CC003F00303012B04BFAD8AA581002038BD2DE9F0410389176804460D469F429046EE
S32500002CE01ADB00260FE02368242000FB0630438A590706D57A1C04D02946FFF7C9FF1435DC
S32500002D00013F0136B6B26389B342ECD823890020C8F80030BDE8F0816FF00D00BDE8F081D5
S32500002D2038B505460C4608460422002100F00EFD2B6823602C6038BD03680BB11A680260D1
S32500002D40184670472DE9F8430C46154699460646D0B1037AB3B10068B0B1D0F80880002391
S32500002D604746337297E809002146984715B148462146A847BF684745F4D101230020337242
S32500002D80BDE8F8836FF00F00BDE8F883F8B51646027A05460F464368AAB1D868FFF73AFFE5
S32500002DA0044698B100210C2200F0D0FC286884E8C00010B9A4602C60F8BD8368A3608460D3
S32500002DC000202C60F8BD6FF00F00F8BD6FF01A00F8BD00BF38B5054680680C46FFF71AFFFB
S32500002DE0206050B10C22002100F0B0FC0122236800201A7223685D6038BD6FF01A0038BD5C
S32500002E00036870B593E8500005461B7A7BB91CE0A1688C4205D12146F0680024FFF720FF9C
S32500002E2007E08B68A360F068FFF71AFFA468002CEED121460C22286800F088FCB06829680F
S32500002E40FFF70EFF2C60204670BD6FF00F0070BDF8B51746027A04460D4690E84800002AA2
S32500002E6029D013B96FF01D0022E09A689342F9D15A688A4222D11A68BA4222D1F0681946BF
S32500002E80FFF7EEFE00202060F8BD99684A68AA420DD10A68BA420AD12268F0688A428A688F
S32500002EA008BF23609A60FFF7DBFE002108460B46002BEAD1F8BD6FF00F00F8BD6FF01D00FF
S32500002EC0F8BD6FF01D00F8BD00221346FFF73ABFFFF738BF38B5044610B10C2900D122B9D6
S32500002EE00E48BDE8384000F057BC4369002545601A685968906813F0AFFE63691A685968E6
S32500002F00906813F021FF606904F012FD204629462822BDE8384000F019BC00BF441B09009C
S32500002F2010B10C2900D112B9024800F035BC002100F070B8441B090010B10C2900D112B99B
S32500002F40024800F029BC012100F064B8441B090010B10C2900D112B9044800F01DBC9188F6
S32500002F6041810221D288828100F054B8441B090011B1042902D8704700F05EB8014800F0E6
S32500002F800BBC00BFD11B090010B50A460C6800230C21A047012010BD38B50D4613460C68F5
S32500002FA02A460C21A047012038BD00BF38B50D46002104460A4600680B4611F051FA3DB1C4
S32500002FC063691A685968002390682A4613F020FE0523236238BD00BF38B502890D4642F4CE
S32500002FE080530E2A8CBF4FF44042002204461A43006801212B4611F033FA3DB163691A6882
S325000030005968002390682A4613F002FE0423236238BD00BFC36910B5052B044603D8054A66
S3250000302052F823309847236AE2699A4218BFE36110BD00BF705C080010B5044600210A465F
S325000030400B46006811F00CFA63691A685968906813F002FE00236362236210BD38B50289EE
S3250000306004460D4642F480530E2A8CBF4FF4404200221A4301212B46006811F0F1F963692B
S325000030801A685968002390682A4613F0C1FD0223236238BD0421FFF7BDBF00BF08B58DF06C
S325000030A0AFFD0323B0FBF3F303EB4303C01A0130642343434FF6FC70184008BD1FB5002198
S325000030C004460A460B46006811F0CAF9218B0131002289B24FF0FF33029203920122206853
S325000030E021830093019311F04BF9012323621FBD002230B51346044685B0022100680325A3
S3250000310011F0AEF9218B013104F10E0289B24FF0FF330392012220682183009301930295D0
S3250000312011F02EF9636A25620133636205B030BD034631B1032907D9042902D14189FFF77B
S325000031404BBF1846FFF714BF704700BF034651B103290BD9042906D1818909B1FFF726BFC4
S325000031604189FFF739BF1846FFF702BF704700BF4B1E032B0AD8DFE803F002020B0B01298F
S3250000318001D1FFF7B5BF4189FFF726BFFFF7F0BE704700BF032908D0042902D0012902D12E
S325000031A07047FFF7A5BFFFF7E3BE70474B1E10B50446032B0BD8DFE803F00E0E020EFFF745
S325000031C06DFF01462046BDE81040FFF747BFBDE81040FFF7CDBE10BD4B1E10B50446032BF6
S325000031E012D8DFE803F015150215436ADB0603D1BDE81040FFF762BFFFF750FF0146204684
S32500003200BDE81040FFF72ABFBDE81040FFF7B0BE10BD00BF1FB5074B03AA01900020ADF8C6
S32500003220081069460093FFF7B7FE00B1039805B000BD00BFB10C09001FB5044620B90748FA
S3250000324000F0AAFA204606E004A9054B002241F80C3DFFF7A1FE04B010BD00BF441B0900AA
S32500003260D52E0000406870471FB5044620B9064800F092FA204605E004A9044B41F80C3D5C
S32500003280FFF782FE04B010BD441B0900212F00001FB5044620B9064800F07EFA204605E081
S325000032A004A9044B41F80C3DFFF76EFE04B010BD441B0900392F00001FB5044620B9084890
S325000032C000F06AFA204608E0064BADF8081001A90193ADF80A20FFF757FE04B010BD00BFA0
S325000032E0441B0900512F00002DE9F0411F46ADF5087D06460D46104600211446102200F07B
S3250000330025FA00211022384600F020FA01A800214FF4007200F01AFA002303E0F25C08F8D6
S3250000332013200133AB420DF10408F7DB81A805F09FFB2A0181A8414605F0B4FB81A9204690
S3250000334005F080FB81A805F093FB81A82146802205F0A8FB384681A905F074FB0DF5087DEE
S32500003360BDE8F081F0B5AFB004460D4616460021152226A800F0EAF9214626A8102200F0E4
S3250000338061F90DF17F070024214626A800F062F80734A82C07F8010FF6D100240822294604
S325000033A02CA800F04FF920AB19190022684602F0CDFD68462CA902F0CDFC301908222CA9EC
S325000033C0083400F03FF9182CE8D12FB0F0BD00BF70B59AB00D4606466846144605F094FE9E
S325000033E0684631462A4605F0A3FE2046694605F043FE1AB070BD00BF10F0010323D00B6831
S32500003400C3EB500020F000431F2B08D80120116810FA03F30B4218D10B4313607047B3F13F
S32500003420804F14D2173B1F2B02D81068D84000E0002010600868C31801200B60136843F4D2
S3250000344000031360704718467047002070470020704700BF00290B46B8BFCB1D01F00701E5
S32500003460DB10C218C05C000252781018C1F1080180B2084100F0FE00704700BF002350FA6A
S3250000348003F212F0010203D10133102BF7D113461846704710B50F2450FA04F313F0010373
S325000034A004D0FFF7EBFF201A013010BD14F1FF34F2D2184610BD00BF2DE9F0479DF82880AA
S325000034C008460C469A461646089FDDF8249009F003FC01210546204609F024FC3B46002154
S325000034E006E0013106EB4A02D21BD25A23F8022B4945F6D1B8F1000F14D04FF6FF733A88A6
S325000035009A4205D10B4801260B4900F045F90AE04900FF22384601F06BF8B0F19F0618BFB4
S32500003520012600E046462046294609F0E7FB3046BDE8F087C81C0900B91C090043691F2BEF
S3250000354002DC01F5805070478069034B10F0804018BF1846704700BF000800182DE9FF41F2
S325000035600A9D98460B9E0446174646EA0503DB071DD47319B3F5407F19D8C2B109F0A2FE75
S32500003580B0B120463946FFF7D9FF024678B10C9B7608009340469DF83430214602936B08FA
S325000035A00196FFF789FF003018BF012000E0012004B0BDE8F08100BF2DE9FF410A9D0446F7
S325000035C0DDF82C806F460020B2FBF3FC013003FB1C2218F8022007F8012B62463E46002AD3
S325000035E0F2D1A5B1854212DD281A034603E03022013B06F8012B002BF9D13E18284606E031
S325000036008C429CBF16F8013C23700134013E6B469E42F5D104B0BDE8F08100BF30B5002341
S3250000362006E0C55CCC5CA54206D303F1010306D89342F6D1002030BD4FF0FF3030BD01209A
S3250000364030BD00BF032A2DE9F04F83464DD9484010F003004BD14B4203F00303D21A03E04B
S325000036600C5C0BF8004001309842F9D11F2A0BEB000301440AD922F01F000818B1E8F01769
S32500003680A3E8F0178842F9D802F01F0290080138062827D8DFE800F004090E13181D2200AA
S325000036A008681860043104331CE0B1E81100A3E8110017E0B1E83100A3E8310012E0B1E866
S325000036C07100A3E871000DE0B1E8F100A3E8F10008E0B1E8F110A3E8F11003E0B1E8F111F8
S325000036E0A3E8F11102F0030202E0034600E05B46002002E00C5C1C5401309042FAD158464E
S32500003700BDE8F08F8318994210B502D28B18984203D3BDE81040FFF795BF81420BD2531ECD
S32500003720C418C91804E0013A11F8013904F80139002AF8D110BD04D810BDCC5CC454013351
S3250000374000E000239342F8D110BD00BF072A30B501D9830702D00446134619E029B1CDB2F5
S3250000376045EA052545EA054500E00D4604461346043B032B44F8045BFAD8131F23F0030376
S32500003780043302F00302C018E5E7013B04F8011B002BFAD1801830BD0FB470B51C4DADF58F
S325000037A0027D2C786CB103F0CDFD4FF47A7319490446B0FBF3F2684603FB124300F038F879
S325000037C0044687AB00AAC4F5007110190131869A0026819300F010F9241804E01DF80600AA
S325000037E0013604F049F8A642F8DB00AB002CA8BF1B1913F8013CA3F10A02534243EB02037A
S3250000380020462B700DF5027DBDE8704004B070473C0718000B1709000CB407B504AB53F864
S32500003820042B019300F0E8F8BDE80E4002B070470EB403B503AA52F8041B019200F0DAF9AD
S32500003840BDE80C4003B0704710B500E032B1CCB2027803460130A242F8D100E013461846C9
S3250000386010BD00BF10B502E09A4215D317D8044611F8013B1BB110F8012B002AF4D1227844
S3250000388022B1D3F1010038BF002010BD002B14BF4FF0FF30002010BD4FF0FF3010BD0120F1
S325000038A010BD00BF034611F8012B03F8012B002AF9D17047002300E00133C25C002AFBD1DB
S325000038C01846704730B503E09C4219D31BD8013A054611F8013B2BB110F8014B14B1002A5E
S325000038E0F2D111E082B12A7822B1D3F1010238BF002209E0002B14BF4FF0FF32002203E02A
S325000039004FF0FF3200E00122104630BD8218034630B593421C460AD011F8015B03F8015B56
S325000039201C46002DF5D102E0002304F8013B9442FAD130BD002330B5044610F8012BCDB25C
S32500003940AA4208BF2346002AF6D1184630BD00BFF0B504780346274F013017F804C01CF05A
S32500003960200CF6D12B2C01D1034607E02D2C08BF034614BF4FF0000C4FF0010C6AB91A786D
S32500003980302A16D15A78782A01D0582A02D1023310220FE0013308220CE0102A0AD1187801
S325000039A0302807D15878782801D0582802D1023300E00A22002001E002FB00401E463478AE
S325000039C001333D5D15F0440F0CD015F0040F01D0303C05E015F0020F01D0573C00E0373CD8
S325000039E09442E9D3BCF1000F00D0404201B10E60F0BD00BF3A6108002DE9F74F01394518FF
S32500003A004FF0000A411E81468D4238BF4FF0FF350446D046D8E0252905D0AC4298BF2170E7
S32500003A2001340132D0E05178232901D0013202E002324FF0010A11782D2901D0302900D115
S32500003A400132002107E0303809181078385C400701D50A204143164610780132E8B1614F55
S32500003A6017F800B01BF0040BBC46ECD12E2814D13246D8460AE0303A904472785948825C46
S32500003A80570702D50A2202FB08F83246013652781AB11CF802004007EDD432786C2A08BF59
S32500003AA001363078692841D009D858285AD001D8502808E0632879D064287ED136E073285B
S32500003AC008D002D8702878D161E075283ED0782873D147E01F1D444A1B68002B08BF1346BE
S32500003AE0B8F1000F0FD171B903E0AC4298BF2270013413F8012B002AF7D163E0AC4298BF5E
S32500003B0022700134013911B922460B460AE013F8012B002AF2D1F7E7AC4201D82020207098
S32500003B200134013B002BF7D154184BE01A681F1D002A05DAAC4201D82D232370013452424A
S32500003B402A4B204600912946019306E0274A1F1D00912046019229461A680A23FFF72CFD96
S32500003B6024182FE0BAF1000F04D0302222703278627002341A681F1D1C4896F800E01C4BD9
S32500003B80BEF1580F08BF03468DE80A000AE01A681F1D1749154B502814BF084618460823F0
S32500003BA001900093204629461023D7E71F1DAC421B6898BF2370013404E0AC421F4698BFBB
S32500003BC020700134721C3B46117800297FF423AFAC4299BFC9EB04002170C9EB0500297033
S32500003BE0BDE8FE8F3A61080004170900296108001861080010B50C4613466FF0004122463B
S32500003C00BDE81040FFF7F8BE0B68D2189A420A6002D2036801330360704700BF00210A22C1
S32500003C2000F048BA4260C26001608160704700BF0022034630B5104607E09C5C02E0651E26
S32500003C4001302C40002CFAD101328A42F5D130BD0EB417B5044605AB0068616853F8042BE5
S32500003C600193FFF7C9FE421C02D06368984202DB0023636004E01B1A636023681B18236038
S32500003C80BDE81E4003B0704710B50C461146A0F58042B2F5C04F034620468CBF024A034AA3
S32500003CA0FFF7BAFD204610BDF4C00900A01E090010B505E0845C8B5C9C4201D0E01A10BDB3
S32500003CC012F1FF32F6D2002010BD00BF38B503460C4641B138B14578023508462A461946C2
S32500003CE0FFF7B0FC6419204638BD00BF10B50B4648B1012A07DD44780234A24203DBBDE80E
S32500003D001040FFF7E3BF184610BD00BF37B50D46002401A9102200F0CDF9019B2855581C49
S32500003D2001341B780BB1062CF3D1A4F10603584240EB03003EBD00BF002330B502780A4C0B
S32500003D401209A25CCA54CA18033310F8015B05F00F05645D54703A24122B9470EED100239B
S32500003D6008464B7430BD00BF3D210900F7B5089E144601911F4610B3012922DD437802339E
S32500003D8099421EDB05462A78DD2A6B780FD1B21C9A420CDAA81C21460322FFF73FFC30B998
S32500003DA086B1681D39463246FFF738FC50B1284601A900F027F905460028E4D102E00546A2
S32500003DC000E000252846FEBD012B2DE9F04F834687B00D4690469A4642DD002A42D00027A3
S32500003DE0144617703E462EE00BEB07035BF807905968B9F1000F08D110212B4602A81B4A5C
S32500003E004D46FFF709FD02A902E019EA050F19D008460191FFF74EFD25EA090501998146E1
S32500003E20361805B10136B24510DD204609F10102FFF76CFD4C442DB1204602210C4AFFF758
S32500003E40EBFC24180837002DCED106E02DB120460221084AFFF7E0FC2418C8EB040002E0E8
S32500003E60002000E0104607B0BDE8F08FA31E0900DD400900FA73090010B5002307E0C45CB6
S32500003E801419E4B29442C45403D2013301228B42F5DB10BD10B50189082916D8DFE801F0AF
S32500003EA00E050505050505050700042A01E043899A42B4BF6FF00D00002010BD43B1002A23
S32500003EC00CBF10466FF00E0010BD6FF0160010BD6FF0160010BD00BF1FB5037842780C46E3
S32500003EE0009282780192C278084602921021034AFFF792FC204604B010BD00BF941E09001E
S32500003F002DE9F041018804460246002532E00432936873B35842184000F022FA6F01023506
S32500003F2004EB8505C0F11F084744BE1D04EB8606706800F003FA6A68A0F1010EDEF1000043
S32500003F4040EB0E007F0100FA08F888EA02036B6073685D421D40284600F002FAA388013BCE
S32500003F60A38073685D407560C0F11F00C019BDE8F08101358D42CAD34FF0FF30BDE8F081E6
S32500003F808388013B70B50446838001204D0901F01F039840AB1D8E0A04EB830305F01F0512
S32500003FA05A685040586000F0C9F9B11C04EB81046368D0F1010038BF002010FA05F55D40B9
S32500003FC0656070BD70B583884A0901F01F05890A0133941D0231838000EB840400EB8100C4
S32500003FE00123666802F01F02416813FA05F5934035430B436560436070BD00BFB0F904006C
S32500004000704700BF10B50C68012C12DD4278931C9C420EDB6FF001039B1AE318012B0B60F5
S3250000402009DD8018C278023002329342B8BF002010BD002010BD002010BD00BF10B50CE0D9
S3250000404003789342447802D1631C8B4208DBA31CC0186FF001031B1BC9180129F0DC002025
S3250000406010BD00BFF8B50D460E4900261446002818BF01460C483746FFF78EFB0BE00B4803
S32500004080E95D0136FFF788FB102E03D108480026FFF782FB0137A742F1DB0548BDE8F84012
S325000040A0FFF77ABBF7E90900BC1E0900B61E090015430900F0B504780346294F01303D5D18
S325000040C015F02005F7D12B2C01D1034605E02D2C08BF034614BF002501256AB91A78302AFB
S325000040E016D15A78782A01D0582A02D1023310220FE0013308220CE0102A0AD1187830289C
S3250000410007D15878782801D0582802D1023300E00A22002005E002FB0044844200D2DDB180
S3250000412020469C469CF8004001333E5D16F0440F0CD016F0040F01D0303C05E016F0020F07
S3250000414001D0573C00E0373C9442E4D305B1404221B1C1F800C0F0BD4FF0FF30F0BD00BF0B
S325000041603A6108000B689A1A9A420A6002D90368013B0360704700BFF0B5012B85B006467C
S325000041801C46029103921BD9002511E04FF0FF32B2FBF4F2039902A803FB025562435242AE
S325000041A0B2FBF4F7009103A904FB172200F00AF8029B002BEAD1039BB3FBF4F42D19356068
S325000041C005B0F0BD2DE9F74F4FEA12494FEA134A92B29BB202FB03FC09FB03F302FB0AF271
S325000041E01E042CF00044019326F000450C9B2D19170425F0004827F0004444444FEAD3787C
S3250000420008EBDC7C0CEBD77C0CEBD67C24F0004B0CEBD57C23F00045AB440CEBD47404EB9E
S32500004220DB74019D14F0010618BF4FF00046120C02EB15432BF0004B09FB0A3946EA0B06D3
S3250000424009EB540404600E60BDE8FE8F38B514461D4663B1FF2A0AD801B942B928706C7016
S325000042601CB1A81C2246FFF7EDF902342D19284638BD00BFFF2A70B5049E1D4606D8941CE4
S32500004280B44203DCBDE87040FFF7E0BF284670BDF0B5002389B002B11370009301930293CB
S325000042A00393049305930693079311F8013B5C0908AD05EB8404012603F01F0516FA05F5E1
S325000042C054F8206C354344F8205C002BEDD1016801260C4611F8013B03F01F05AE405D0955
S325000042E008AF07EB850555F8205C2E4202D0002BEED101E0202BEBD0254612E0012701F033
S325000043001F06B7404E090DF1200C0CEB860656F8206C374205D002B11170002203F8012BD2
S3250000432004E02B46297801350029E7D103609C4214BF2046002009B0F0BD00BF020A13B5D7
S32500004340010C064BC4B2D2B21C5D9A5CA218C9B2595C5218000E185C10181CBD3A62080015
S32500004360B0FA80F0704700BF08B500F039F828B100210A46BDE80840FFF79CBE08BD00BFBE
S3250000438037B5154600F02CF888B100240BE0002201A9FFF78FFEAC4209D0019803782C2BF3
S325000043A008BF013001340378002BF0D118463EBD13B500F015F878B1002409E0002201A943
S325000043C0FFF778FE019803782C2B08BF013001340378002BF2D100E0044620461CBD00BF42
S325000043E070B504460E46084600291FD0FFF762FA054690B91AE0204631462A46FFF70EF964
S3250000440028B9635D3D2B02D10135601970BD234613F8012B1C46002AFAD114B12378002B5C
S32500004420E9D13046BDE8704005F044BB70BD00BF70B5856904461DB12B686968984719E0AA
S32500004440867C013E0FE0238963B1637C13B93246013E00E02A460332204604EBC2025368AB
S32500004460916898470135A37C9D42ECDB637C83F001036374002070BD0346008938B158686E
S3250000448042695A60002242611A89013A1A81704710B58478014620468CF06AFB28B120462E
S325000044A000218CF05DFB002010BD4FF0FF3010BD012370B5044603740546002604E0EB6A25
S325000044C02046296B013698470835E37C9E42F6DB0020207470BD00BF43684B6103890133C2
S325000044E041600381704700BFF8B50C4F06463C688CB101250BE0284600212C468CF038FB25
S3250000450020B1284631468CF02BFB04E001353B689D42F0D900242046F8BD00BFD8071800E3
S325000045200122CB0801F0070112FA01F1C25C22EA0101C154704700BF062208B50349FFF7AA
S325000045406DF8D0F1010038BF002008BDFC680800062208B50349FFF761F8D0F1010038BFAD
S32500004560002008BD08690800044B1B78012B02D1002000707047FFF7F7BE00BFAC0718007A
S32500004580044B1B78012B02D1002000707047FFF7F7BE00BFAC071800044B1B78012B02D1D7
S325000045A0002000707047FFF703BF00BFAC071800044B1B78012B02D1002000707047FFF74E
S325000045C00FBF00BFAC07180010B50346411808E013F8014B54400548E4B250F8240080EA8A
S325000045E012228B42F4D3104610BD00BFFC630800034604E013F8010B42400348825C11F1B3
S32500004600FF31F7D210467047FC670800CB08C05C01F00701084100F0010080F001007047D9
S32500004620012201F0070312FA03F3C908405C1840704700BF2DE9F84333EA230728BF4FF457
S325000046408057184B0C46089D9946196806E0A3899A4206D3D21AA38A51F82340F4B1002A68
S32500004660F5D1002617E0B4F80C80A168C2EB0808474538BFB846284689184246FEF7E2FF65
S32500004680D9F80030A28A4544C8EB070753F82240464424B10022002FE5D100E026463046C8
S325000046A0BDE8F883480718002DE9F8431E46174B0C46DDF820809946196806E0A3899A4241
S325000046C006D3D21AA38A51F82340DCB1002AF5D1002514E0A789A068BF1ABE4238BF37461B
S325000046E0801841463A46FEF7ADFFD9F80030A28AB844F61B53F82240ED1924B10022002E62
S32500004700E8D100E025462846BDE8F88348071800054B1A6800E019468B8A52F82330002BAC
S32500004720F9D10846704700BF4807180038B545898489A54208D08478CC70428901324281FE
S32500004740FFF7CAFE002038BD6FF01C0038BD00BF30B58C7C0846002309E008304569AA4238
S3250000476004D101EBC3031C338B6102E00133A342F3DB886900280CBF4FF0FF30002030BD49
S3250000478000208861704700BF01757047007D70472DE9F8438F8905460C4602B1BF10B4F8FF
S325000047A00A8000261BE0134BE1891B7828461BB1627803F0D5F801E003F02CF98146A8B100
S325000047C020464946FFF7B2FF013640B128464946002203F0EDF84FF0FF30BDE8F88306EB99
S325000047E00803BB42DFDB0020BDE8F8836FF01A00BDE8F883E100090010B50446FFF76CFEBF
S32500004800237D43B9A37C33B1237C23B92046BDE81040FFF70DBE10BD2DE9F743DDF82890B2
S325000048201F468046CB880D4616466BB1002408E022464046294633468DE8800200F058F810
S3250000484001342B889C42F3DBBDE8FE8370B504460D4616460C224A4300210832FEF776FFFA
S325000048602580A680002301E00133E6800C34AB42FADB70BD30B54488024600200346012512
S325000048809D400D421CBF158A401901330C32A342F5DD30BDC38813B910E0013B438043882C
S325000048A02BB10C2202FB03029268002AF5D001B10B600C2202FB03008068704718467047FE
S325000048C030B5C3888BB144880246002304E00C3252F8045C15B90133A342F8DB01B10B608C
S325000048E00C2202FB0300C06830BD184630BD00BF2DE9F74F0C275743083701900C469A463A
S32500004900CD1951F807B04FF000083CE00C9B224E23B158460D99984700282ED02B68C3EBD3
S325000049200B02BBF81630D2F1000949EB0209326852F82330B9F1000F01D02B6005E00BB173
S325000049401B8800E04B46A8F81630002301985946ABF81630524603F02BF82B89013B2B81C9
S32500004960E388013BE380B9F1000F02D0D5F800B009E0B8F81620336803E03368D846BBF866
S32500004980162053F822B0BBF1000FBFD1E3590BB9C5F804B0BDE8FE8F480718002DE9F04320
S325000049A08946A1B09046014620B1037813B11848FEF7F2FE002680256C461EE016F00F07C8
S325000049C007D120462946134A3346FEF725FF24182D1A002D08DD204619F8063029460E4A2C
S325000049E0FEF71AFF24182D1A0F2F05D10B486946FEF7D2FE80256C4601364645DED16946CE
S32500004A008C4202D00548FEF7C7FE21B0BDE8F083A81E0900AD1E0900B61E09003C930900A8
S32500004A200122CB0801F0070112FA01F1C25C1143C154704700F46050C01207281ABF024B7A
S32500004A40185C0020704700BF2269080014380A23B0FBF3F0C0B2704710B504460846FFF730
S32500004A60F5FF201AC0B210BD10B51446FFF7F4FF00EB8400C0B210BD38B50C46114615461C
S32500004A80FFF7EAFF201A830708D114238008B5FBF3F5A84228BF4FF0FF3038BD4FF0FF309B
S32500004AA038BD00BF2DE9F0470E288CBF4FF4404A4FF0000A4AEA010AB1F5C05F80461FFA75
S32500004AC08AFA0ED0B1F5005F0FD0B1F5205F10D0B1F5805F2AD14AEA00081FFA88F0BDE893
S32500004AE0F0870C27134D282606E00627124D502602E0124D0227A0260024A94699F800009C
S32500004B0041463246FFF7B8FF0135002808DB99F800804AEA080A4AEA002080B2BDE8F087A9
S32500004B200134BC42E9DB0020BDE8F0870020BDE8F08700BF106908001C6908000E690800B4
S32500004B4041F2CE23994203D1431E0D2B03D909E0C82802D906E00E2807D000EB800000EB0A
S32500004B60510070474FF0FF30704740F6B410704738B500F46053B3F5805F054601D1C0B2A7
S32500004B8038BD00F4E0642412B3F5405F0CD1032C02D800F00F0503E000F0F005043C2D1135
S32500004BA0064B5021585D03E0FFF744FF0146E8B22246BDE83840FFF757BF00BF1C6908009E
S32500004BC000F46053B3F5805F10B5044609D0FFF7CFFF24F47E5424F07F0440F48050044329
S32500004BE0A0B210BD10F4404200F4605306D1B3F5805F2AD0B3F5C05F40D12FE0B2F5404FEE
S32500004C003CD1B3F5405F0DD100F00F03052B35D800F0F0000011052830D898428CBF0020B2
S32500004C2001207047B3F5C05F09D002D8B3F5805F04E0B3F5005F02D0B3F5205F1ED1C2B24E
S32500004C40E02A1BD8B3F5805F05D110F4E06F0CBF002001207047B3F5C05F04D100F4E0600E
S32500004C60B0F5807F06E0B3F5005F09D100F4E060B0F5407FD4BF00200120704701207047C8
S32500004C800020704700F46053B3F5005F14D1C3B200F4E060B0F5007F02D10433002007E0C6
S32500004CA0B0F5407F03D104334FF4807000E0043B1843024B034398B2704700BF00D8FFFFA9
S32500004CC01FB5039002910AE003234FF0090C03A98DE8081002AA074B00F074F838B9039851
S32500004CE0DD220299FFF7AAF904460028ECD1204604B010BDDA1A09007FB5164603901D46E2
S32500004D00029119E00321022302AA8DE80A0003A90F4B00F057F878B163780233052B05D901
S32500004D20A279B24202D1AA1C93420DD0039AD2180392029AD31A02930398DD220299FFF7AE
S32500004D407DF904460028DDD1204604B070BD00BF941409001FB50390029109E003220123D4
S32500004D6003A98DE80C0002AA074B00F02BF838B90398DD220299FFF761F904460028EDD149
S32500004D80204604B010BD00BF941409001FB5039002910AE003234FF0040E03A98DE80840F2
S32500004DA002AA074B00F00EF838B90398DD220299FFF744F904460028ECD1204604B010BD8A
S32500004DC094140900F8B5069F16464278044697420D460BDA023019463A46FEF71FFC28B957
S32500004DE0E7199DF81C30BA789A420AD063780233E4182B68002032681B1BD31833602C604B
S32500004E00F8BD0120F8BD00BF30B50EE08478C378057843EA0423447844EA05240433944247
S32500004E2001D18B4204DDC018C91A0329EEDC002030BD00BF70B50C461146032205461E46CD
S32500004E40FEF7ECFBA0B9EB78013B042B27D8DFE803F0070326050A0002231EE0042204E024
S32500004E6006B3012319E0EEB103222280012619E028460D490322FEF7D1FB80B996B1EB7843
S32500004E800833092B04D00A2B06D0082B09D101E0082302E00722E8E709232380E6E7002609
S32500004EA000E00646304670BD9014090070B50C4616462B4903220546FEF7B0FB90B9EB786D
S32500004EC0062B48D8DFE803F03C0A0C04070A0C0044F240033CE04FF4814339E0402337E01F
S32500004EE0802335E028461F490322FEF797FB38B9EB78002B32D10EB9102329E0082327E0BB
S32500004F00284619490322FEF789FB60B9EB78012B03D015D3022B21D102E04FF4806213E0A1
S32500004F204FF4006314E0284610490322FEF776FB98B9EB78012B06D002D3022B0ED106E002
S32500004F400120206070BD02222260184670BD04232360012070BD002070BD002070BD00BFFB
S32500004F6098140900901409009C1409009414090038B503220C4619490546FEF74FFB18B93E
S32500004F80EB78022B27D819E0284615490322FEF745FBEB7830B9012B1ED14FF48072184663
S32500004FA0226038BD0B2B15D8DFE803F006080B140D0814141414140F002308E00120206036
S32500004FC038BD022303E0042301E04FF480732360012038BD002038BD2060F9E790140900D5
S32500004FE09C14090010F4747F0CBF00200120704700F00F00003018BF012070474BF6FF73A7
S325000050000340402B0CD0802B0AD0102B08D0B3F5807F07D0A3F50073584240EB0300704760
S32500005020012070470120704780B2431E9BB2012B08D9082808D0A0F1040CDCF1000040EB2C
S325000050400C00704701207047012070472DE9F04714461C4A86B0994603AB06460D461068F0
S325000050605168127A03C303A81A700F9FDDF840A0FEF720FC03A902463846FEF7E3FA03A887
S32500005080FEF718FC3146062280463818FEF7DAFA08F10600294606223818FEF7D3FA0023B8
S325000050A02046019349463A4608F10C03CDF800A001F080FC0E9851461022FEF7C3FA06B030
S325000050C0BDE8F0874D2109002DE9F043BFB01D462F4B1446DDF8249107460E4638AA03F147
S325000050E0100C18689646596808336345AEE803007246F6D11868998810609B799180002020
S32500005100937139460623324600F04AF80DF11008062201464046FEF795FA06233946324684
S32500005120012000F03DF8062201460DF11600FEF789FA202329462246002000F031F8202293
S32500005140014607A8FEF77EFA202329462246012000F026F8202224AC01460FA8FEF772FA2C
S3250000516038A8FEF7A7FB4C224799019238AACDF800800294CDF80C900346469801F0F4FBAC
S32500005180489821464A46FEF75DFA3FB0BDE8F083C62109001346014AFFF74CBE9814090096
S325000051A070B5002406E00D5D165DB54201D020B907E001349C42F6D106E0AE4288BF114607
S325000051C002E0AE4238BF1146084670BD2DE9F0439946254BB9B006460D46186817463690EB
S325000051E036A8439C9A889B79ADF8DC208DF8DE30FEF760FB36A9024602A8FEF723FA36A871
S32500005200FEF758FB02AB4946202280461818FEF719FA02AB08F12000394620221818FEF718
S3250000522011FA02AB08F14000314606221818FEF709FA02AB08F146002946062222AD18182E
S32500005240FEF700FA4098419902AA08F14C030095019401F019FC429829462246FEF7F2F9F2
S3250000526039B0BDE8F08300BF702109002DE9F04398463A4BBBB006460C4618689B88ADF8D1
S32500005280E4301546364B9A883890429F18689B79369038A88DF8DE30ADF8DC20FEF70AFBE5
S325000052A038A9024602A8FEF7CDF938A8FEF702FB3AAA3146131800F1010903F8E04C02AB33
S325000052C003EB09002246FEF7BDF94C443AAA1319033403F8E05C2D0A03F8DE7C414603F8A2
S325000052E0DF5C02AB18193A46FEF7ACF9E71902AAD01943990622FEF7A5F9302322AC019394
S3250000530002AABB1D44984599009401F0BDFB214620224698FEF796F936A8FEF7CBFA36A98A
S32500005320024602A8FEF78EF936A8FEF7C3FA02AB2AA9102205461818FEF784F902A805F12A
S3250000534010012246002301F0DDFB479821461022FEF778F93BB0BDE8F08300BF56210900C2
S325000053605C2109002DE9F0479946374BBAB006460D4618689B88ADF8E4309246334B9A8816
S32500005380389022ACADF8DC20202718689B79369038A88DF8DE30FEF78DFA38A9024602A86D
S325000053A0FEF750F938A8FEF785FA02AB3146062280461818FEF746F902AB08F106002946C4
S325000053C006221818FEF73EF908F10C035046494602AA0197009401F057FB21463A46439839
S325000053E0FEF730F936A8FEF765FA36A9024602A8FEF728F936A8FEF75DFA02AB429910228C
S3250000540007461818FEF71EF902AB07F11000314606221818FEF716F902AB07F1160029464B
S3250000542006221818FEF70EF902A807F11C012246002301F067FB449821461022FEF702F910
S325000054403AB0BDE8F08700BF63210900692109002DE9F04714461B4A86B0994603AB064646
S325000054600D4610685168127A03C303A81A700F9FDDF840A0FEF71EFA03A902463846FEF744
S32500005480E1F803A8FEF716FA3146062280463818FEF7D8F808F10600294606223818FEF728
S325000054A0D1F8384608F10C0122464B46CDF800A004F0ECFE0E9851461022FEF7C3F806B088
S325000054C0BDE8F0874D2109002DE9F043BFB01D462F4B1446DDF8249107460E4638AA03F143
S325000054E0100C18689646596808336345AEE803007246F6D11868998810609B79918000201C
S325000055009371394606233246FFF74AFE0DF11008062201464046FEF795F806233946324676
S325000055200120FFF73DFE062201460DF11600FEF789F82023294622460020FFF731FE202279
S32500005540014607A8FEF77EF82023294622460120FFF726FE202224AC01460FA8FEF772F820
S3250000556038A8FEF7A7F94C224799019238AACDF800800294CDF80C900346469804F0ECFDAD
S32500005580489821464A46FEF75DF83FB0BDE8F083C62109002DE9F043D7B090464A4A1C4651
S325000055A05E9D53AB07460E4610685168127A03C329461A70002020232246DDF88091FFF728
S325000055C0EFFD202201462BA8FEF73CF82BA920223E48FFF7E3F92023294622460120FFF7B5
S325000055E0DFFD2022014633A8FEF72CF833A920223748FFF7D3F93BA940223648FFF7CEF96C
S3250000560020232BA840214BAA01F07CFA4BA920223148FFF7C3F953A8FEF74CF953A90246D7
S325000056202BA8FEF70FF853A8FEF744F92BA902462A48FFF7B3F953A8FEF73CF92BAB3946BE
S3250000564032461D18044606230020FFF7A9FD062201462846FDF7F6FF294606222048FFF7AD
S325000056609DF9A51D2BAB5D193946062332460120FFF796FD062201462846FDF7E3FF294694
S325000056800622174803ADFFF789F92BAB04F10C001818414606221234FDF7D4FF2BA9224656
S325000056A01048FFF77BF94BA820212BAA23468DE8200201F0E9F95F9829464A46FDF7C2FF9B
S325000056C057B0BDE8F08300BFBD21090077210900832109008F210900952109009F21090070
S325000056E0A72109007A820900F0B500F15F0599B004460F4616462946102214A8FDF7A2FF9E
S32500005700002110222846FEF721F82046394632466B4600F00FF940B11022684614A9FDF72C
S325000057207DFFD0F1010038BF002019B0F0BD00BF1346014AFFF77EBB9414090010B5BDE8EB
S32500005740104000F001B800BF2DE9F34101F003010129044615461E46DDF824800A9F15D012
S3250000576042DB00F15F0390F85D70002E08BF1E4690F85E202946102042EA07220096FAF784
S32500005780BDFFD0F1010038BF002030E004F12D0110224046FDF756FF2946102208F1100090
S325000057A0FDF750FF404620213A4604F04BFF08984FF480713A4604F067FF16B1E5782379AD
S325000057C003E094F85D5094F85E3043EA05255F34204629463A4604F057FF3EB13046214638
S325000057E02A46FDF72FFF01E0002000E00120BDE8FC8100BF2DE9F34101F00301012904467B
S325000058001646099F0A9D09D066DB90F85D5090F85E3043EA05250F2D36D828E01BB190F875
S325000058200380037903E090F85D8090F85E3004F12D011022384643EA0828FDF703FF314668
S32500005840102207F11000FDF7FDFE384620212A4604F0F8FE08982A464FF4807104F014FFB5
S3250000586004F15F0041462A4604F00EFF32E04319DD2203F1600083F85F20EA43002110328B
S32500005880FDF764FF102515E06B0713D04319DD2203F1600083F85F206A1C02F007020021E1
S325000058A0C2F10802FDF752FF4FF6F8732B4003F10805ADB204F15F03102031462A46009364
S325000058C0FAF7A0FF40B90835ADB22B0A84F85E5084F85D30012000E00020BDE8FC8100BF33
S325000058E0012200F001B800BF30B585B015460390029108E0032303A98DE8280002AA074B27
S32500005900FFF760FA38B90398DD220299FEF796FB04460028EED1204605B030BD9814090097
S3250000592004E0435C5A1CFF2B425402D101390029F7DA704737B5057C0C46417C41EA05211D
S325000059400431022C0AD0032C0ED0012C13D100930E30102300F0A4FF20460DE000930E302B
S32500005960102304F093FC04E000930E301023FAF70DFE012000E000203EBD00BFF0B589B0CE
S3250000598004460E4615466846002110221F46FDF7DDFE002323F0010216F803C008A98A1876
S325000059A032F8200C13F0010118BF08210CFA01F101330143102B22F8201CEBD139780A020C
S325000059C07B78D218BB7843EA052592B2002300E035463DF8030042401D48160A30F81660BB
S325000059E04FEA162C4CEA0626D2B230F81220564004A8B6B27540AAB21A520233102BE7D197
S32500005A000DF11E03BDF80020D50B45EA42021D8815FA82F292B223F802298342F4D121706C
S32500005A207B786370BB78A370032323F0010208A98A1832F8101C13F0010218BF082251FA1D
S32500005A4002F2E2540133102BEFD109B0F0BD00BF2A6908002DE9F843836A05460C4613F049
S32500005A60030221D0A918013200200133032A81F82C00F7DD95F82D804FEA0848AB6295F8DF
S32500005A802C3048EA036895F82F30284648EA030895F82E30D5E9086748EA032800F032F8E1
S32500005AA0E8FB0067C5E90867D5E908010F224FF0FF384FF00009A1FB022300EA080601EA1F
S32500005AC00907B61A67EB03077942F8176FF00E0303FB0011A7FB032392190B4443F1000342
S32500005AE0102A73F1010502EA080002D36FF00E028018030EE0702370030C6370030AA37036
S32500005B00BDE8F8837FB5866A0446013EB51015F0030516D13611294610226846FDF716FE5B
S32500005B20330A8DF80F6010208DF80E30330C360E8DF80D3021466A4623188DF80C60FAF7C2
S32500005B40CBFD04EB8504637C1B04227C43EA0263E27C1343A07C43EA002004B070BD00BF14
S32500005B6010B510220446FDF76DFD00230022C4E908230023A36210BD2DE9F843836A0446E6
S32500005B808846154603F0030327E055B3E11812F8010B013381F82C00013DA16A9046013195
S32500005BA0032BA162F1DD94F82D904FEA094994F82C3049EA0369204694F82F3049EA0309F5
S32500005BC094F82E30D4E9086749EA0329FFF79AFF0023E9FB0067C4E90867002D01DD42469E
S32500005BE0D4E7BDE8F88300BF2DE9F0438FB006460D46144618462A4908221F46DDF8588077
S32500005C00FDF70CFD814650B1384626490822FDF705FD00280CBF4FF0FF3000203DE04FEAD5
S32500005C202823684631468DF834308DF83580FFF797FF684629460622FFF79EFF6846214652
S32500005C400622FFF799FF68460DA90222FFF794FF684639460822FFF78FFF684607F10C01E9
S32500005C600422FFF789FFA8F11002684607F11001FFF782FF68460CA9FFF7ECFE07F108005E
S32500005C800CA90422FDF7CAFC30B117980CA90422FDF7D8FC484600E001200FB0BDE8F083D0
S32500005CA0326B08002A6B08002DE9F0438FB098468646179F9146199D0C4668467B19103350
S32500005CC071461A0A8DF83530189E8DF83420FFF747FF684621460622FFF74EFF6846494671
S32500005CE00622FFF749FF68460DA90222FFF744FF684611490822FFF73FFF684641460422B6
S32500005D00FFF73AFF684616993A46FFF735FF2EB125B1684631462A46FFF72EFF68460CA977
S32500005D20FFF798FE1A980CA90422FDF78BFC01200FB0BDE8F08300BF326B080000BA7047FC
S32500005D40030A43EA002080B2704700BFFFF7F6BFFFF7F6BFF0B54C780E784A792404CB78C8
S32500005D6044EA06648E7812048D791C430B7942EA0362CB7944EA06241A4342EA052282EA37
S32500005D80141606F00F36724084EA0616082782EA16439BB25A4086EA034383EA920505F0D2
S32500005DA033356B4082EA850583EA152404F0FF14634085EA04244FEAF47484EA030202F0E7
S32500005DC0AA32534062404FEAF37346685E4C564006F03F0C0CF5E07C056854F82CC085EA6D
S32500005DE0321583EA0C0C330A03F03F0303F5A07354F823308CEA030C330C03F03F03360E78
S32500005E00C03306F03F06403654F8233054F826608CEA0303734005F03F0606F5C07654F881
S32500005E20266073402E0A06F03F0606F5807654F8266073402E0C06F03F0680362D0E05F0DF
S32500005E403F0554F8266054F825507340C6686B405E4006F03F0C0CF5E07C8568103054F824
S32500005E602CC085EA331582EA0C0C05F03F0202F5C07254F822208CEA020C320A02F03F0215
S32500005E8002F5A07254F822208CEA020C320C02F03F02360EC03206F03F06403654F82220FB
S32500005EA054F826608CEA020272402E0A06F03F0606F5807654F8266072402E0C06F03F0681
S32500005EC080362D0E05F03F0554F82660013F54F8254082EA060282EA04027FF476AF4FEA18
S32500005EE0720282EA030404F0AA34634054404FEA730384EA132505F0FF156C4083EA05250B
S32500005F0084EA950303F033335C4085EA830383EA144080B2434084EA004083EA101202F0E6
S32500005F200F32534080EA0212CB71100ECA700870100C4870100A1A0E88700A711A0C4A7193
S32500005F401A0A8A71F0BD00BF3C6B0800F0B500239FB016463A4A9A5C013A3A4FD4100C5D03
S32500005F6002F0070257F8222014420CBF002201220DF803200133382BECD10546002400211D
S32500005F8008221CA8FDF7E2FBC4F10F03002E08BF23462D4AD15C00235A181B2BCCBF3820B5
S32500005FA01C208242A4BFA1F11C02D2181EA8821812F8780C0EAAD0540133382BECD100239D
S32500005FC01EA9224A9A5C8A1812F8412C82B1062093FBF0F10DF1780C0CEB010200FB1131F8
S32500005FE057F8210012F8081C41EAA00102F8081C0133302BE4D19DF872301B049DF8702054
S3250000600043EA02639DF8762013439DF8742043EA02239DF8712001342B609DF873301B04AF
S3250000602043EA02639DF8772013439DF8752043EA02236B600835102CA1D11FB0F0BD00BFD9
S325000060405C7308003C730800C4730800947308007FB515461E468AF01BFE68B103692946E4
S32500006060099A00920A9A01929DF82C20029232465C69089BA04701E04FF0FF3004B070BD42
S32500006080F7B50B460446174601B12AB9274B1B68DB0748D5264843E0866B8EB9C56B002DA7
S325000060A02CD18163C2634A62516221460095226840688AF085F8E06000282CD0284634E06A
S325000060C08E421BD1C26BBA4218D0826C00230AE0216C01EB830051F82310013319B907600D
S325000060E018467E6221E09342F2DB10490968C80719D510491048FDF74FFB14E00B4A126880
S32500006100D10710D58DE8880032460A49E36B0B48FDF742FB07E0054B1B68DA0703D508485F
S325000061200449FDF739FB4FF0FF30FEBD0007180008190900C61809002419090050190900D3
S3250000614083190900C0688AF043B800BF10B50446C06B03695B68984710B9012384F8463011
S3250000616010BD00BF38B505461446506801221BB1BDE8384001F01CBC01F01AFC2046294692
S32500006180BDE838408AF08CBD38B50B46F9B1C16B8B4218D0856C002109E0046C54F8214038
S325000061A0A34201F1010401D1D47410E02146A942F3DB084A1268D20707D507491A46074853
S325000061C0FDF7EAFA01E0002101E04FF0FF31084638BD00BF00071800CC190900E21809007D
S325000061E037B5034601B12AB9214B1B68D9073BD5204809E0846B5CB9C06B002828D11C4BE8
S325000062001B68DA0730D51C481C49FDF7C5FA2BE08C421DD1C06B90421AD09D6C00200CE0D0
S32500006220196C01EB800451F8201000F10100914203D100232360536218E0A842F0DB0C4BF2
S325000062401B68DB0710D50D490D48FDF7A5FA0BE007480068C00707D58DE806002246094837
S325000062600649DB6BFDF798FA4FF0FF303EBD00BF00071800081909009C190900D3180900DA
S32500006280B3190900501909002DE9F74F8B4690460546002861D05389292B01D810465AE071
S325000062A05468E389B3F5807F54D1A37C062B51D1E67C042E4ED1238A082B4BD104F11C09A9
S325000062C049463246684604F1260AFDF7BBF901A851463246FDF7B6F96F6827B1019BDA1B9B
S325000062E0574247EB020704F11606002F0CBF0223012328466946324600F036F9A38AB3F5E7
S32500006300807F27D137B30220FFF71AFD49460422A0825046FDF796F9291D04224846FDF789
S3250000632091F93146062204F12000FDF78BF9314606222046FDF786F9594606223046FDF7F8
S3250000634081F95946A01D0622FDF77CF9AB69284641469847404603F07BFEBDE8FE8F00BF05
S325000063602DE9F84304460D46164603202A210022994603F005FD804600283DD04768BDF80A
S325000063802C00FFF7DDFC49460622B88207F11600FDF758F90999062207F12000FDF752F997
S325000063A0314606223846FDF74DF929460622B81DFDF748F90899042207F11C00FDF742F9D5
S325000063C00A99042207F12600FDF73CF900230122BB730421FA7308227B740623F97420468C
S325000063E03A744146BB743A737B73A36998470446404603F02DFE00E0FF2460B2BDE8F8838A
S32500006400F8B54C6806460D461746194606222046FDF718F93946A01D0622FDF713F9082398
S3250000642030462373002329466373B3699847F8BD2DE9F04F3F4E85B03F4B044603911A7821
S3250000644031689346029100211546944601910B460091924633E04FFA85F91F01029EC145EF
S3250000646006EB0700867B02D116B91D4625E026B33CB1D4F80090D0F80480C14501D11D466A
S3250000648053E0012E10D1DDF80880C07B58F8076026B1884211D39B4601460EE0009EB04239
S325000064A00BD39A46009008E0022E06D1DDF80480C07B404524BF9C4601900133DBB24FFA20
S325000064C082F84345C7DB039950468B072CD46BB2434502D1CB0703D426E001DAEDB215E0B8
S325000064E04FFA8CF352B2934202DA5FFA8CF50AE043B2934201DAC5B205E04FFA8BF39342B8
S3250000650012DA5FFA8BF5284600F018F82CB1094E2268336803EB05135A60064900220B6845
S3250000652003EB0513DA7300E0FF2568B205B0BDE8F08F00BFE0071800DD07180038B5094D0E
