S00C0000726F6D6C2E737265635E
S3150000002041EA020303439B0730B510D104680B680D
S315000000306340136044684B686340536084688B6810
S3150000004063409360C068CB684340D36030BD0023F3
S31500000050CD5CC45C6C40D4540133102BF8D130BD58
S315000000602DE9F04F8DB04FF001080CAC064604F8B0
S31500000070208D0D469146114604EB08000D229B4645
S31500000080199F01F071F9002330468DF81E3029467C
S31500000090179B22468DF81F80A3F1080A189B8DE84E
S315000000A08800534600F0B4FA10B14FF0FF3028E054
S315000000B0189B07EB0A088DF81E00294653448DF855
S315000000C01F0022468DE808013046082300F0A0FAFA
S315000000D00028EAD108AC169B30468DE8080429466C
S315000000E002974A4603945B4600F05AF80028DCD192
S315000000F020464146082201F025F9003818BF6FF066
S3150000010000000DB0BDE8F08F2DE9F04F8DB04FF037
S31500000110010A0CAC07460E469346114604F820AD7C
S315000001200D2204EB0A009946DDF85C8001F01CF90B
S31500000130002208AD189B38468DF81E2031468DF8F2
S315000001401F20169A8DE804015A4602934B460395E2
S3150000015000F026F810B14FF0FF301EE0009538464B
S31500000160019531462246082300F052FA0028F2D1C2
S31500000170294608221A9801F0F7F8189B009338468A
S31500000180199B31460193224643468DF81FA000F085
S315000001903FFA003818BF6FF000000DB0BDE8F08FD1
S315000001A02DE9F04589B0B3F57F4F80460F461D46D1
S315000001B0DDF840A0119E73D20BB9192300E0592334
S315000001C011460DF101000D228DF80030C7F39A0794
S315000001D001F0CAF8330A063704AC8DF80E304046F3
S315000001E039466A4623468DF80F6007F09BFE55B3E5
S315000001F09DF8103083EA15238DF810309DF81130E4
S315000002006B4055448DF811300223AA4513D008AA35
S315000002101AF8010B1A4412F8101C01334140102B36
S3150000022002F8101CF1D1234640463946224607F013
S3150000023079FE0023E9E7190705D0404639462246EC
S31500000240234607F06FFE4FEA161A0025129B554506
S3150000025003EB05110BD020462246FFF7E1FE404690
S3150000026039462246234607F05DFE0135EEE70023B8
S3150000027006F00F02934205D2E05CCD5C6840E05484
S315000002800133F7E72AB1404639462246234607F0AE
S3150000029049FE13982146082201F066F8002001E085
S315000002A04FF0FF3009B0BDE8F08500BF2DE9F04FF3
S315000002B085B0054689460E9C1846002192460D22B9
S315000002C01E4601F0CFF81E222046002101F0CAF892
S315000002D02F8807F4407BBBF54070C7F38103D0F14C
S315000002E0000B5BEB000B022B0CBFC7F3C013002304
S315000002F003F0FF0203923BB1BBF1000F0CBF1823C2
S315000003001E2335F8038001E0DDF80C80039ABBF16B
S31500000310000F14BF0623002302B1023303F12001AC
S31500000320109A03F1180C1160304603F116010F9A6A
S3150000033005EB0C031160062200F801AB05F10A017A
S315000003400293CDF804C001F00FF8029BDA79DDF8CC
S3150000035004C0F2719A7932725A7972721A79B2724B
S315000003605B78F37215F80C303373B9F1000F0CD1CA
S31500000370BAF1FF0F02D01AF0100F02D027F460571F
S3150000038005E04CF28F733B4002E027F40067BBB2F6
S3150000039023701B0AA01C6370291D122200F0E4FFC3
S315000003A0EB8AB9F1000F02D103F00F0300E000233E
S315000003B02375002304F116006375BBF1000F06D008
S315000003C005F11801062200F0CFFF04F11C00039B83
S315000003D07BB1B9F1000F06D108F00F0880F8019043
S315000003E080F8008005E080F800804FEA182880F841
S315000003F0018005B0BDE8F08F2DE9F04192B01D46B1
S3150000040004AB0AAC019305AB07460E469DF8601097
S3150000041090469DF864200293284606AB0094FFF7A9
S3150000042045FF059B009438461D44C3EB080302951F
S315000004303146019306AA0395049BFFF711FE002897
S3150000044014BF6FF00100002012B0BDE8F08100BFBC
S315000004502DE9F04194B01C4606AB0CAD019307ABF9
S3150000046016469DF86C2080460F469DF8681002934C
S31500000470204608AB0095FFF719FF079A00954046FE
S31500000480A318B21A344401923946029308AA039378
S315000004900494069BFFF738FE003818BF6FF0000083
S315000004A014B0BDE8F08100BF2DE9F041C8B00746A1
S315000004B088464E9C4F9E1CB104F10F052D0900E0A5
S315000004C0012529018C4204D1A4F1100110463144C2
S315000004D01BE0A1F11002A11AB01800248C4204F10D
S315000004E0010205D010F804E00DF804E01446F5E723
S315000004F080210DF80410144600220F2C03D80DF8A5
S3150000050004200134F9E7184669466A46FFF788FD74
S31500000510FF000021102208A800F0A4FF3A460CA80C
S31500000520414607F079FF7F0906370124AC4208A847
S315000005300CD2314604AAFFF773FD0CA8394604AA6B
S3150000054008AB07F0EFFC01341036EFE7694604AA62
S31500000550FFF766FD0CA8394604AA08AB07F0E2FCD3
S31500000560509808A9102200F0FFFE48B0BDE8F081BF
S31500000570F0B58DB006460F4614461D461846114680
S3150000058008AB04AA00F00CF8129B029328460097C9
S315000005902146019604AA08ABFFF786FF0DB0F0BD11
S315000005A030B585B014461D46174A6B4600F086F8EE
S315000005B00F2200231DF8021043EA4103A35412F14F
S315000005C0FF324FEAD113F5D29DF90030002B04DA41
S315000005D020460E492246FFF723FD0F220023A15C89
S315000005E043EA4103AB54A35C12F1FF324FEAD31343
S315000005F0F5D294F90030002B04DA284603492A463E
S31500000600FFF70EFD05B030BD740908006409080047
S31500000610B3F5801F2DE9F04F824689B08B461C4604
S3150000062046D80DF1100811464046102200F09CFEF7
S31500000630CBF39A0B26090BF1060B00254746DDF88E
S315000006404C80B542129B4FEA0519C844994418D00C
S315000006506B46504659463A4607F064FC484669469A
S315000006604246FFF7DDFC9DF81F300133DBB28DF803
S315000006701F3023B99DF81E3001338DF81E30013529
S31500000680DDE714F00F0401D1002013E06B4650465D
S31500000690594604AA07F046FC002319F803201DF862
S315000006A003104A4008F803200133A342F5D1EBE7D3
S315000006B04FF0FF3009B0BDE8F08F00BF70B5C40041
S315000006C0BCB01546684622461E4607F0A5FE6109DF
S315000006D0684606312A46334607F024FC3CB070BD16
S315000006E02DE9F04F1D4620F00803102BADF52D7DAA
S315000006F003D0202801D001246CE0B2F5C47FFAD8DB
S3150000070012F00708F7D1A2F10806C7003A460EA86C
S3150000071006AC07F0BBFD4FEAD6092946082220465B
S3150000072000F022FE4AA805F10801324600F01CFE40
S315000007305FFA89FB05237F0903FB0BF30637DBB260
S315000007400297062704934AAB03EBC9030393049B62
S3150000075009F1FF354FF0000A4344DBB2013305933C
S315000007606B1CAAF1080A22D0059AE379DDF80CC0C1
S3150000077008A82A44D444534061460822E371013D47
S31500000780CDF804C000F0F0FD0AAB0EA8029922468F
S3150000079007F00EFA0AA90822204600F0E5FDDDF86A
S315000007A004C00CA96046082200F0DEFDD8E7CBEBBA
S315000007B00808013F5FFA88F8C9D106A80849082247
S315000007C000F0C0FD0446002895D1B6984AA93246E5
S315000007D000F0CAFD20460DF52D7DBDE8F08F00BF67
S315000007E0840908002DE9F04F1E4620F00803102B5F
S315000007F0ADF5277D144601D0202859D1B4F5C07F28
S3150000080056D814F0070753D14FEAC00A52460AA831
S3150000081007F002FE46AD294908224FEAD40802A88D
S3150000082000F0A2FD4FEA5A1A31462846224600F049
S315000008309BFD0AF1060A5FFA88FB0626AC460025F0
S31500000840454523DA0CEBC5094946082204A8CDF82C
S3150000085004C000F089FD06AB0AA8514602AA07F0BB
S3150000086061FB08A90822484600F07EFD082202A87E
S3150000087006A900F079FD7B1C2B449DF80F20534000
S3150000088001358DF80F30DDF804C0D9E75F44013E2D
S31500000890FFB2D4D102A90822B09800F065FDB09B42
S315000008A046A903F10800224600F05EFD304600E04E
S315000008B001200DF5277DBDE8F08F00BF84090800F3
S315000008C02DE9F341074600254FF00308D7F87033AA
S315000008D09D423FD207EB8503D3F87443D4F80869E9
S315000008E016F0030334D0C4F80489D4F80829900715
S315000008F0FBD1022B03D0032B13D0184812E0D4F8F7
S315000009000038174843F00103C4F80038D4F800381B
S31500000910D4F8003823F00103C4F80038D4F80038BE
S3150000092000E0104800F0C2FD29460F4800F0BEFD69
S31500000930D4F80C19D4F81029D4F81439D4F81C09B1
S3150000094000900A4800F0B2FD0948314600F0AEFDBD
S315000009500135BBE702B0BDE8F08100BFFE3B0900F0
S315000009600E3C09001A3C09002B3C09003C3C0900DE
S31500000970743C0900D0F8CC3010B500EB8303D3F8F3
S31500000980D44040F627039C4205D10A490A4800F0A4
S315000009908DFD002010BDD0F8543201B932B1D3F824
S315000009A0080420EA01010A43C3F80824D3F808041E
S315000009B010BD00BF423B0900D53B090073B5D0F816
S315000009C054420E46D4F80038D90728D41F25D4F847
S315000009D0043893B90120C4F80008D4F8003801930C
S315000009E0019B04F0E9FFC4F808640A20D4F808342F
S315000009F00193019B04F0E0FF11E0013D03D00A20C2
S31500000A0004F0DAFFE3E740F2E935D4F80438002BC6
S31500000A10E0D0013DDED00A2004F0CEFFF5E702B0BB
S31500000A2070BD00BF2DE9F341D0F854420646884612
S31500000A3017461F25D4F8043801932BB1013D03D086
S31500000A400A2004F0B9FFF5E7019B23B1019A374864
S31500000A50374900F02BFD01230A20C4F800381F2572
S31500000A6004F0AAFFD4F804382BB1013D03D00A20C4
S31500000A7004F0A2FFF6E747F0030747EA08071F2539
S31500000A80C4F80874D4F808340193019BD4F80438E8
S31500000A9001932BB1013D03D00A2004F08DFFF5E749
S31500000AA0019B23B1019A2348214900F0FFFC0A2546
S31500000AB0D4F800380BB3013D20D01F27D4F80438F2
S31500000AC001932BB1013F03D00A2004F075FFF5E72F
S31500000AD0019B23B1019A1848154900F0E7FC002351
S31500000AE01F27C4F80038D4F80438002BE0D0013FA3
S31500000AF0DED00A2004F060FFF5E74DB9D6F8CC3019
S31500000B000E480B4906EB8306D6F8D42000F0CEFC3F
S31500000B1048F001030120C4F80834D4F808340193DE
S31500000B20019B04F049FF02B0BDE8F081513B09008A
S31500000B30943C09006F3B09008D3B0900AA3B090064
S31500000B40D0F8CC3010B500EB8303D3F8D44040F690
S31500000B5027039C4205D10A490A4800F0A7FC002059
S31500000B6010BDD0F8543201B932B1D3F8000520EAED
S31500000B7001010A43C3F80025D3F8000510BD00BFE4
S31500000B80853C0900D53B09000F2910B5029C13D8F6
S31500000B9000EB8100D0F88C1019B9D0F81411C0F808
S31500000BA08C10D0F88C1003B924B1885820EA0303BE
S31500000BB01C438C50885810BD002010BD0F290CD83E
S31500000BC000EB8101D1F88C301BB9D1F81431C1F892
S31500000BD08C30D1F88C00104470470020704700BF5D
S31500000BE0D0F8CC2000EB820393F81B1300F0CEB8AC
S31500000BF0D0F85432D3F8000100F01F00704700BF50
S31500000C00D0F85432D3F80001C0F30420704700BF77
S31500000C10D0F85432D3F8082402F00302012A06D190
S31500000C20D3F8000880F0010000F0010070470020B2
S31500000C30704700BFD0F8D03030B5102B28BF102336
S31500000C4099421CD200EB8103D3F88C20D3F81451BF
S31500000C50D3F898420AB9C3F88C50D3F88C20C0F860
S31500000C608820D3F8585215B90CB1C3F85842D3F8B6
S31500000C705832C0F85432C0F8CC10104630BD0020AF
S31500000C8030BD00BF10B5D0F85402890802B933B19F
S31500000C9050F8214024EA0202134340F8213050F86C
S31500000CA0210010BD704700BF2DE9F0470AAE9246FD
S31500000CB00122134607460D4696E8400300F04EF81B
S31500000CC000F00603042B044608D1C0F30323534562
S31500000CD004D1089B00F0C0029A4205D02B68002080
S31500000CE0043B2B60BDE8F08720F47F6323F00F03FD
S31500000CF0099A136010F0080307D0002238462946E7
S31500000D00134600F02BF8306000E0336004F0300347
S31500000D100026302BC9F8006016D1324633463846D5
S31500000D20294600F01BF820F47F6323F00F03020727
S31500000D30C8F800300FD5384629463246334600F00B
S31500000D400DF8C9F8000006E04FF480521B0902FABC
S31500000D5003F3C8F800302046BDE8F0872DE9E043EC
S31500000D6080460E4617469946404609F077FD356897
S31500000D7055F8040B35603FB1C307F5D50F2803D0EE
S31500000D8000EA07034B45EFD1BDE8E083084670470C
S31500000D9038B5438A03F00303012B04460AD1036ADC
S31500000DA0B3B1203000F088F800210422054600F097
S31500000DB059FB03E0806804F0E3FF054645B1A389CB
S31500000DC00133E2899BB29A42A38105D2E38103E013
S31500000DD0238A002501332382284638BD10B50446F0
S31500000DE0084681B1638A03F00303012B04D104F1A1
S31500000DF0200000F055F801E004F0D4FFA389013B80
S31500000E000020A38110BD6FF0010010BD38B5054666
S31500000E100C4608461422002100F024FBAB68A360B0
S31500000E202046AB892946E3810822EB8923822B8A57
S31500000E30638200F0E9FB00230020E3716B8A03F074
S31500000E400303012B04BFAB8AA38138BD2DE9F84308
S31500000E500389166804460F469E4290461BDB002512
S31500000E604FF024096389AB420FD9206809FB0500BE
S31500000E70438A590706D5721C04D03946FFF7C6FFC8
S31500000E801437013E0135ADB2ECE723890020C8F8DE
S31500000E900030BDE8F8836FF00D00BDE8F88300BFB1
S31500000EA038B505460C4608460422002100F0DAFA59
S31500000EB02B6823602C6038BD03680BB11A6802608A
S31500000EC0184670472DE9F8430F4690469946044662
S31500000ED0B0B1037ABBB10068B8B186680023354665
S31500000EE0237295E8050039469047B8F1000F02D005
S31500000EF048463946C047AD68B542F2D10123237250
S31500000F000020BDE8F8836FF00F00BDE8F88300BF4E
S31500000F10F8B51646027A05460F464368AAB1D86860
S31500000F20FFF736FF044698B100210C2200F09AFA2A
S31500000F30286884E8C00010B9A4602C60F8BD8368F6
S31500000F40A360846000202C60F8BD6FF00F00F8BD30
S31500000F506FF01A00F8BD00BF38B5054680680C462C
S31500000F60FFF716FF206050B100210C2200F07AFA3C
S31500000F700122236800201A7223685D6038BD6FF075
S31500000F801A0038BD036870B593E8500005461B7A11
S31500000F90E3B17CB1A1688C4205D12146F0680024FA
S31500000FA0FFF71CFF06E08B68A360F068FFF716FFEB
S31500000FB0A468EEE70C222868002100F053FAB06816
S31500000FC02968FFF70BFF2C60002070BD6FF00F0043
S31500000FD070BD00BFF8B51746027A04460D4690E884
S31500000FE048005AB313B96FF01D0014E09A68934293
S31500000FF0F9D15A688A4224D11A68BA4221D1F068D6
S315000010001946FFF7EBFE00202060F8BD99684A6894
S31500001010AA4203D00B46002BF8D10EE00A68BA426A
S31500001020F8D12268F0688A428A6808BF23609A600D
S31500001030FFF7D4FE00210846ECE7F8BD6FF00F007D
S31500001040F8BD6FF01D00F8BD00221346FFF73ABF4A
S31500001050FFF738BF2DE9F0431F46ADF5097D814600
S315000010608846104600211546102200F0FBF908AE0E
S3150000107000211022384600F0F5F9304600214FF4E1
S31500001080007200F0EFF90024444505DA19F804303F
S3150000109006F814300134F7E701A804F003FF4FEA1D
S315000010A0081201A8314604F015FF01A9284604F0EC
S315000010B0E3FE01A804F0F6FE01A82946802204F00A
S315000010C009FF384601A904F0D7FE0DF5097DBDE8F4
S315000010D0F08300BF2DE9F041AEB004460F46164638
S315000010E00021152202A800F0BDF9214602A810220F
S315000010F000F03AF900244FF0070808AD08FB04F1A8
S3150000110002A800F05BF828550134182CF6D100240B
S3150000111039460822684600F027F9291900220EA848
S3150000112002F0EEFE0EA8694602F0E6FD30196946A9
S315000011300822083400F018F9182CE9D12EB0BDE8C1
S31500001140F08100BF70B59AB00D4606466846144653
S3150000115005F0F0F9684631462A4605F0FDF92046C5
S31500001160694605F09DF91AB070BD00BF10F0010385
S3150000117022D00B68C3EB500323F000431F2B08D883
S315000011800120116800FA03F30B4215D10B431360DB
S315000011907047B3F1804F0FD2173B1F2B8EBF002035
S315000011A01068D84010600868034401200B6013687B
S315000011B043F400031360704700207047082391FB37
S315000011C0F3F3C218C05C527802EB002001F007016D
S315000011D080B2C1F10801084100F0FE00704700BF6F
S315000011E02DE9F8439DF82870084614460D469946A1
S315000011F0089E08F0F5FE012104EB4909002480460B
S31500001200284608F013FF099949008C4204D034F8A7
S31500001210093033530234F8E7A7B14FF6FF7332882B
S315000012209A4205D10B4801240B4900F03FF90AE028
S3150000123021463046FF2201F0C7F8B0F19F0418BFDF
S31500001240012400E03C462846414608F0DBFE2046E5
S31500001250BDE8F883A23C0900C83C090043691F2B7E
S3150000126002DC01F5805070478369034813F0804F14
S3150000127008BF0020704700BF000800182DE9FF4195
S315000012800A9C98460B9D1746064644EA0503DA076C
S3150000129001D501201EE06319B3F5407FF9D8002F70
S315000012A0F7D009F07BFAA8B130463946FFF7D6FFEA
S315000012B002460028EDD06D080C9B4046009331464F
S315000012C09DF83430019502936308FFF789FF0030DB
S315000012D018BF012004B0BDE8F08100BFF0B585B0AD
S315000012E0054601270A9E00AC3C44B2FBF3FC0B9872
S315000012F003FB1C22825C04F8012C62463846013747
S31500001300002AF0D10EB1864204DC013C00AA0DF1A0
S31500001310FF3309E0301A20443023844202D004F817
S31500001320013BFAE73046F0E79C4209D08D4298BF70
S31500001330227805F1010598BF05F8012C013CF3E779
S3150000134005B0F0BD002330B5934208D0C55CCC5C37
S31500001350A54206D303F10103F6D9012030BD0020D2
S3150000136030BD4FF0FF3030BD032A2DE9F04F4DD987
S3150000137080EA010414F0030448D14B4203F003034E
S31500001380D21A9C4203D00D5D05550134F9E71F2A98
S3150000139000EB040321440AD922F01F040C44B1E8EF
S315000013A0E01FA3E8E01F8C42F9D802F01F02940860
S315000013B0013C062C27D8DFE804F004090E13181D9B
S315000013C022000C681C60043104331CE0B1E83000D4
S315000013D0A3E8300017E0B1E87000A3E8700012E05F
S315000013E0B1E8F000A3E8F0000DE0B1E8F010A3E8E2
S315000013F0F01008E0B1E8F011A3E8F01103E0B1E85D
S31500001400F013A3E8F01302F0030200E00346002401
S31500001410944203D00D5D1D550134F9E7BDE8F08F08
S315000014208318994230B502D28B18984203D3BDE88F
S315000014303040FFF799BF81420BD2541E5342051923
S31500001440214419442B441AB18C5C9C54013AFAE7A6
S3150000145030BD06D90023934203D0CC5CC45401337B
S31500001460F9E730BD072A30B501D9830701D0024418
S3150000147016E029B1CCB244EA042444EA044400E06C
S315000014800C46034643F8044BD51A0544032DF9D8F8
S31500001490131F23F003030433184402F00302E6E7A4
S315000014A0904202D000F8011BFAE730BD0FB4F0B548
S315000014B0ADF5037D1A4F01AC3D786DB104F05AF9D4
S315000014C04FF47A7317490546B0FBF3F2204603FB47
S315000014D0125300F037F8054689ABC5F5007160195F
S315000014E00131889A0026009300F004F90544AE42C3
S315000014F004DAA05D013604F0FDFBF8E7002DA8BF75
S31500001500641914F8013C0A2B0CBF0123002328465A
S315000015103B700DF5037DBDE8F04004B0704700BF99
S3150000152008081800ED3509000CB407B504AB53F8EC
S31500001530042B019300F0DEF803B05DF804EB02B073
S31500001540704700BF0EB403B503AA52F8041B0192FC
S3150000155000F0E6F902B05DF804EB03B0704700BF97
S31500001560C9B2024610F8013B8B4203D0002BF8D1DA
S315000015701846704710467047013910B5044611F8F1
S31500001580013F33B110F8012B1AB19A4208D3F5D9AD
S3150000159009E0227812B133B1002010BD002BFBD038
S315000015A04FF0FF3010BD012010BD00BF0023CA5C04
S315000015B0C2540133002AFAD1704700BF0023C25C2F
S315000015C00AB10133FBE71846704700BF0023F0B5A8
S315000015D0D51ACC5CC7184CB1C65C3EB1934209D053
S315000015E0A6420BD303F10103F2D90AE015B13B7809
S315000015F013B134B10020F0BD002CFBD04FF0FF300A
S31500001600F0BD0120F0BD00BF0244034610B5934271
S3150000161001D1002106E011F8014B03F8014B002C23
S31500001620F5D1F6E7934202D003F8011BFAE710BDA5
S315000016300022C9B210B5034610F8014B8C4218BF00
S3150000164013460CB11A46F6E7184610BDF0B5284EFB
S315000016500478355D05F02005034605F0FF070130E7
S31500001660DFF88CC0002DF3D12B2C01D1034605E009
S315000016702D2C08BF034614BF0027012762B91A782C
S31500001680302A15D15A7802F0DF02582A07BF0233F2
S315000016901022013308220CE0102A0AD118783028CB
S315000016A007D1587800F0DF00582802D1023300E055
S315000016B00A2200201E4634781CF8045015F0440F08
S315000016C003F1010302D17FB140420DE015F0040F92
S315000016D001D0303C03E0AD074CBF573C373C944249
S315000016E0F1D202FB0040E5E701B10E60F0BD00BF9C
S315000016F0AE0908002DE9F74F013945184FF0000AE9
S31500001700411EDFF8189280468D4238BF4FF0FF35F4
S31500001710044657461178002900F0EE80252906D0A8
S31500001720AC4202F1010298BF21700134F2E7517810
S31500001730232914BF01320232117808BF4FF0010A83
S315000017402D2901D0302900D101320021164610780A
S31500001750013258B319F800C00CF0040C0CF0FF0B62
S31500001760BCF1000F09D030380144107819F8000098
S31500001770400744BF0A204143E8E72E2816D13246E7
S315000017805F460A200136527882B1DFF890B11BF825
S3150000179002C01CF0040F09D0303A1744727819F8C9
S315000017A002205207324648BF4743EBE732786C2A9D
S315000017B008BF01363078692850D00AD858286ED02C
S315000017C001D8502809E0632800F08480642845D0B9
S315000017D08AE0732815D00FD8702840F085801A68E3
S315000017E003F1040B4A494B4B502814BF08461846D0
S315000017F008230190009369E0752843D078284ED0DD
S3150000180072E003F1040B444A1B68002B08BF134621
S31500001810581E07B909B1234613E010F8012F002A14
S3150000182067D0AC4204F1010498BF04F8012CF4E738
S3150000183010F8012F3AB1AB4201F1FF3198BF1A708F
S3150000184001330029F4D15C182022A34251D0AB42C7
S3150000185003F1010398BF03F8012CF6E71A6803F1B8
S31500001860040B002A08DAAC4298BF2D2304F10104C8
S3150000187098BF04F8013C5242264B20460091294667
S31500001880019307E0234A03F1040B009120460192DD
S3150000189029461A680A23FFF721FD044429E0BAF114
S315000018A0000F06D02246302002F8020B3078607016
S315000018B014461A6803F1040B164896F800E0144B18
S315000018C0BEF1580F08BF03468DE80A002046294698
S315000018D01023E0E7AC4203F1040B1B6804F101049A
S315000018E098BF04F8013C04E0AC429B4698BF2070C8
S315000018F00134721C5B460DE7AC4295BFC8EB040091
S31500001900C8EB05002170297003B0BDE8F08F00BF59
S315000019108C0908009D090800E6350900AE09080093
S3150000192010B50C4613466FF000412246BDE8104044
S31500001930FFF7E0BE164B10B51B6823B35A6822B3F7
S31500001940DC681CB3A168013AD9605A6031B92AB182
S3150000195021881048C1F30B01FFF7A8FD21686FF33A
S3150000196017310B0E6FF307132160C1F30B01E37000
S315000019700023A36011B90848FFF798FDE37843F008
S315000019801003E37002E01C4600E01446204610BD3A
S3150000199084081800E73C0900233D090000210A22BB
S315000019A000F09CBA4260C26001608160704700BF6F
S315000019B0002330B5044618468B4207D0E25C1AB1C4
S315000019C0551E01302A40FAE70133F5E730BD00BF66
S315000019D00EB417B505AB044603C853F8042B0193A0
S315000019E0FFF788FE421C02D06368984202DB0023A0
S315000019F0636004E01B1A636023680344236003B03A
S31500001A00BDE8104003B0704770B503460C46A0F51C
S31500001A108045064E08461146054AB5F5C04F98BFA3
S31500001A203246FFF781FD204670BD00BFA43D090088
S31500001A307FC5090038B503460C4641B138B1457833
S31500001A40023508462A461946FFF78EFC2C442046E6
S31500001A5038BD00BF10B50B4648B1012A07DD4478F2
S31500001A600234A24203DBBDE81040FFF7E3BF18468D
S31500001A7010BD00BF012AF0B51F4685B014464FEAD7
S31500001A80511601F01F0308D102FA03F450F826207C
S31500001A90144214BF0020012017E0551E2944B1FB53
S31500001AA0F7F507FB15114D09B54208D150F8250089
S31500001AB0194600F02FFBA04228BF204605E08DE81E
S31500001AC092002A46314600F0EFFA05B0F0BD00BF9D
S31500001AD037B50D46002401A9102200F0FFF90134A4
S31500001AE02B1903F8010C019B581C1B780BB1062C13
S31500001AF0F1D1A31F5842584103B030BD70B50C4C0C
S31500001B000A4600233A25C65C3609A65D1670C65CF1
S31500001B100133062B06F00F06A65D957002F103024F
S31500001B2002F8026CEFD1002308464B7470BD00BF6B
S31500001B30D73C09002DE9F341089D174601911E4641
S31500001B40044608B9002025E00129FBDD437802336D
S31500001B509942F7DB05F102082278DD2A637807D07F
S31500001B60204601A900F064F904460028F4D1E9E70B
S31500001B709845F5DAA01C39460322FFF7E3FB002857
S31500001B80EED135B1601D31462A46FFF7DBFB002852
S31500001B90E6D1204602B0BDE8F08100BF012B2DE959
S31500001BA0F04F824687B00D4616469B464FF000081A
S31500001BB041DD002A41D01446474682F80080002DB8
S31500001BC037D00AEB08035AF808905968B9F1000FA4
S31500001BD008D110212B4602A81A4A4D46FFF7A4FC4D
S31500001BE002A902E019EA050F19D008460191FFF78C
S31500001BF0E5FC25EA090501998146074405B1013747
S31500001C00BB450FDD204609F10102FFF7FDFC4C4400
S31500001C102DB1204602210C4AFFF786FC044408F148
S31500001C200808CCE72DB120460221084AFFF77CFCC4
S31500001C300444A01B02E0404600E0104607B0BDE8A1
S31500001C40F08F00BFA73D0900A0BC09003E8809002F
S31500001C50144A38B51368044615460BB35A6801880A
S31500001C601B689A4206D11048C1F30B01BDE8384003
S31500001C70FFF71CBCC1F30B0189B211B90B48FFF782
S31500001C8015FC2B68DA68A2605A68DC6001325A607B
S31500001C9023686FF3173323601B0E6FF30713E3708C
S31500001CA038BD00BF84081800463D0900783D09008C
S31500001CB050B1064B1B681A68904204D89B680C22E8
S31500001CC002FB003070470020704700BF84081800F0
S31500001CD010B50189082917D8DFE801F00D050505BB
S31500001CE0050505050900032A0BDD002010BD438903
S31500001CF09A42FADA05E03BB1002AF6D06FF00E0000
S31500001D0010BD6FF00D0010BD6FF0160010BD00BFC6
S31500001D101FB503780C464178009181780191102116
S31500001D20C27820460292034AFFF7FEFB204604B023
S31500001D3010BD00BF983D09002DE9F0410288054617
S31500001D400024944230D205EB8407FB6853B3584213
S31500001D50184000F005FAC0F11F0808EB441405EB23
S31500001D608406F06900F0E8F9FB68B0F1010EDEF1D7
S31500001D70000050EB0E0000FA08F883EA0803FB6047
S31500001D80F3695F421F40384600F0EAF9AB88013B31
S31500001D90AB80F3695F40F761C0F11F0000EB4410B0
S31500001DA0BDE8F0810134CCE74FF0FF30BDE8F081AB
S31500001DB070B583884E09013B0446838000EB860399
S31500001DC0012001F01F029040DA690D4606F01F0659
S31500001DD05040AD0AD86100F0AFF904EB8504E36822
S31500001DE0D0F1010038BF002000FA06F67340E36028
S31500001DF070BD00BF4A09838870B5013300EB8204C9
S31500001E00838001F01F060123890AE56902F01F029B
S31500001E1003FA06F600EB810035439340E561C1689D
S31500001E201943C16070BD00BFB0F90400704700BF20
S31500001E300A6810B5012A01DC002010BD4478A31CF5
S31500001E409A42F9DB6FF001031B1B1344012B20445C
S31500001E5000F102000B60EFDD427802329342EBDBC9
S31500001E6010BD00BF10B501290DDD037893424478FB
S31500001E7002D1631C8B4207DBA31C18446FF00103DD
S31500001E801B1B1944EFE7002010BD00BFF8B50F4635
S31500001E900E4916460024002818BF01460C48254660
S31500001EA0FFF704FBB5420CDA0A48795D0134FFF707
S31500001EB0FDFA102C03D108480024FFF7F7FA013584
S31500001EC0F0E70548BDE8F840FFF7F0BA73EB090004
S31500001ED0C03D0900BA3D090004550900F0B52B4F75
S31500001EE004783E5D06F02006034606F0FF05013045
S31500001EF0DFF898C0002EF3D12B2C08BF034605D07F
S31500001F002D2C08BF034614BF0025012562B91A7897
S31500001F10302A15D15A7802F0DF02582A07BF023359
S31500001F201022013308220CE0102A0AD11878302832
S31500001F3007D1587800F0DF00582802D1023300E0BC
S31500001F400A2200201F463C781CF8046016F0440F55
S31500001F5003F1010302D19DB1404211E016F0040FD6
S31500001F6001D0303C03E0B6074CBF573C373C9442A7
S31500001F70F1D202FB0044844200D225B12046E1E7BB
S31500001F8019B10F60F0BD4FF0FF30F0BDAE0908008B
S31500001F90F0B5012B85B006461C460291039219D96D
S31500001FA000254FF0FF37029B03997BB1B7FBF4F294
S31500001FB0009102A803FB0255624303A95242B2FBF9
S31500001FC0F4FE04FB1E2200F007F8ECE7B1FBF4F484
S31500001FD02544356005B0F0BD2DE9F74F1D0C140CF6
S31500001FE09BB292B203FB02F963436A4301934FEA41
S31500001FF003480C9B29F0004628F000474FEA024CA4
S315000020004FEAD37B37440BEBD9792CF0004A27F003
S31500002010004609EBD87808EBDC7C56440CEBD77706
S3150000202026F0004A07EBD67623F00047BA44019F14
S31500002030120C06EBDA7616F0010F02EB17432AF0C4
S31500002040004A05FB04340CBF4FF0000C4FF0004C67
S3150000205004EB56064CEA0A0306600B6003B0BDE8C3
S31500002060F08F00BF38B515461C4663B1FF2A0AD863
S3150000207001B942B9207065701DB1A01C2A46FFF750
S3150000208073F902352C44204638BD00BFFF2A70B5CF
S31500002090049E1D4606D8941CB44203DCBDE870407D
S315000020A0FFF7E0BF284670BD2DE9F041C3F12006D9
S315000020B007460D4650F8210090461946324600F074
S315000020C029F8B042044622D3089E76090135B5FBAD
S315000020D0F6F306FB1355454509D057F825000021B0
S315000020E0202200F017F81F280444EFD80FE0069EC0
S315000020F0002157F8250006F01F060136324600F08B
S3150000210009F8B04294BF2018A019BDE8F081204616
S31500002110BDE8F0814FF0FF3310B58B4003400C460D
S3150000212007D0581E584000F01BF8C0F11F00001BD6
S3150000213010BD104610BD00BF084BC2B2995CC0F37B
S3150000214007229A5C0A44C0F30741595C0A4482B0EC
S31500002150000E185C104402B0704700BFAE0A0800BB
S31500002160B0FA80F0704700BF08B500F039F828B122
S3150000217000210A46BDE80840FFF7B0BE08BD00BF13
S3150000218037B5154600F02CF880B100240BE001A904
S315000021900022FFF7A3FEAC4209D0019803782C2B4E
S315000021A008BF013001340378002BF0D1002003B0C2
S315000021B030BD00BF13B500F013F870B100240378EA
S315000021C053B101A90022FFF789FE019803782C2B51
S315000021D008BF01300134F2E7204602B010BD00BF4F
S315000021E070B504460D4609B9002070BD0846FFF7D4
S315000021F0E5F906460028F7D094B1237883B1204646
S3150000220029463246FFF79EF828B9A35D3D2B02D139
S315000022100136A01970BD14F8013B002BFBD1EBE78A
S315000022202846BDE8704004F06FBD00BF70B58569F3
S3150000223004461DB12B686968984718E0867C013E04
S31500002240A37C9D420FDA23895BB1637C13B93346C5
S31500002250013E00E02B4604EBC30320465A6E996EFE
S3150000226090470135ECE7637C83F00103637400203B
S3150000227070BD00BF03893BB14368DA694260002242
S31500002280DA610289013A02811846704770B5012366
S315000022900446054600260374E37C9E4205F10805C4
S315000022A005DAEB6A2046296B01369847F4E70020E9
S315000022B0207470BD4368CB6103890133416003819B
S315000022C0704700BF0122CB0801F0070102FA01F1B5
S315000022D0C25C22EA0101C154704700BF10B50289F1
S315000022E04AB10368013A1C6859680C601C68616051
S315000022F00281184610BD104610BD00BF03680B6072
S31500002300486001600B685960038901330381704797
S3150000231008B504490622FFF715F8D0F1010038BFC9
S31500002320002008BD8411080008B504490622FFF7FD
S3150000233009F8D0F1010038BF002008BD901108004F
S31500002340044B1B78012B02D1002000707047FFF769
S315000023500BBF00BF20081800044B1B78012B02D1CD
S31500002360002000707047FFF70BBF00BF2008180061
S31500002370044B1B78012B02D1002000707047FFF739
S3150000238019BF00BF20081800044B1B78012B02D18F
S31500002390002000707047FFF723BF00BF2008180019
S315000023A003460144074810B58B4208D213F8014B87
S315000023B05440E4B250F8244084EA1222F4E710466E
S315000023C010BD00BF840C080003460144054810B543
S315000023D08B4204D013F8014B6240825CF8E710464A
S315000023E010BD00BF84100800CB08C05C01F00701D7
S315000023F0084100F0010080F001007047012201F061
S31500002400070302FA03F3C908405C1840704700BF8F
S31500002410C1650266002070472DE9F84333EA2306BA
S3150000242028BF4FF48056174B0C46DDF8208099469E
S31500002430196844B152B1238A9A4207D3D21AA38BA0
S3150000244051F82340F5E72046BDE8F8830025AEB1F4
S31500002450278AE168BF1ABE4238BF37464046114454
S315000024603A46FEF781FFD9F80020A38BB844F61B45
S3150000247052F823403D440CB10022E8E72846BDE867
S31500002480F88300BF10081800212928D98389082B52
S315000024900BD1837B1909042901D1C37B19E00629D5
S315000024A019D11B01C17BDBB211E0812B17D1252984
S315000024B015D9038A082B12D1837C1909042901D165
S315000024C0C37C06E0062906D11B01C17CDBB243EAC8
S315000024D011139B0800E000231370012070470020B1
S315000024E0704700BF044B1A688B8B52F823300BB130
S315000024F01946F9E7084670471008180038B54589A7
S315000025008489A54208D08478CC7042890132428100
S31500002510FFF7D0FE002038BD6FF01C0038BD00BFAD
S315000025200023887C10B583420BDA01EBC304646E8A
S31500002530A24204D101EBC30364338B6101E0013392
S31500002540F1E78869002814BF00206FF0000010BD75
S3150000255000208861704700BF10B5837C042B07D02C
S3150000256000EBC30401336166A2668374002010BDCC
S315000025704FF0FF3010BD00BF38B504460D4641B9D7
S31500002580837C33B1037C23B9037D022B01D1FFF792
S315000025904DFE003518BF0125257538BD007D00307C
S315000025A018BF0120704700BF2DE9F8438D8980468A
S315000025B00C4602B1AD100026B4F80A9006EB0903EA
S315000025C0AB4215DA4046E189627803F0EDFB074637
S315000025D080B120463946FFF791FF01360028EDD03D
S315000025E040463946002203F001FC4FF0FF3503E078
S315000025F0002501E06FF01A05A37C23B1237C13B9F3
S315000026002046FFF713FE2846BDE8F88308B5C36DDC
S315000026100BB1016E984708BD2DE9F7430A9E1F4688
S315000026208046CB880D4691466BB100242B889C4290
S3150000263009DA224600974046019629464B4600F0A5
S3150000264049F80134F2E703B0BDE8F083F8B50C268B
S31500002650174606FB01F20C46083200210546FEF736
S3150000266001FFBAB200232C80AA80A34204DA06FB3B
S31500002670035101334A82F8E7F8BD00BF0022F0B5E6
S315000026804488134601250C2605FA03F70F4203D0AA
S3150000269006FB03073F8A3A440133A342F4DD1046A2
S315000026A0F0BD00BF30B5C38893B1002342880C2427
S315000026B0934203DA04FB0305AD6815B119B10B604B
S315000026C001E00133F4E70C2202FB0303D86830BDB6
S315000026D0184630BD2DE9F74F9A460C2300265A437B
S315000026E0264F814602F108080D4601EB080451F811
S315000026F00820B346002A39D00C9B53B92168511AD9
S315000027004B424B41D18B93B1386850F82110216070
S3150000271015E0104601920D990C9B9847019A0028E6
S31500002720ECD13968D08B164651F82020E2E738689C
S3150000273050F8211009B1098800E01946F183A2F882
S315000027401EB0114648465246019303F04FFB2289BC
S31500002750013A019B2281EA88013AEA800BB122689C
S31500002760C8E73A68F18B52F82120C3E755F80830DC
S3150000277003B9626003B0BDE8F08F00BF100818000F
S315000027802DE9F0478946A0B09046014620B102786F
S3150000279012B11948FEF78AFE002680256C466F4660
S315000027A0464520D016F00F0A07D120462946134A7F
S315000027B03346FEF7B9FE04442D1A002D08DD2046E7
S315000027C019F8063029460E4AFEF7AEFE04442D1AC5
S315000027D0BAF10F0F05D10B486946FEF767FE802553
S315000027E06C460136DCE7BC4203D006486946FEF774
S315000027F05DFE20B0BDE8F087AC3D0900B13D0900A3
S31500002800BA3D09001AEC09002DE9F04116468E4240
S3150000281005460F461A462CD30C46FB08F208D11A79
S3150000282001291DD90133D7004FEAC30808F1FF3843
S31500002830FF21934202D2E9540133FAE7444505D811
S315000028402146284600F01AF80134F7E7B74205D8C2
S315000028503946284600F012F80137F7E7BDE8F0815F
S3150000286021462846013400F009F8B442F8D9BDE8FB
S31500002870F0810024FFF7C8FF2746CEE70122CB08E8
S3150000288001F0070102FA01F1C25C1143C15470471D
S31500002890C0F3C220072802D0024B185C7047002004
S315000028A0704700BFBA1108000A231438B0FBF3F0D2
S315000028B0C0B2704710B504460846FFF7F5FF201A68
S315000028C0C0B210BD10B51446FFF7F4FF00EB84004C
S315000028D0C0B210BD38B50D4611461446FFF7EAFFE3
S315000028E0281A830708D11423B4FBF3F48008A04206
S315000028F028BF4FF0FF3038BD4FF0FF3038BD00BF66
S31500002900052802D8024B185C70470020704700BFAC
S31500002910B41108002DE9F0470E288CBF4FF440494A
S315000029204FF0000949EA0109B1F5C05F80461FFA78
S3150000293089F911D0B1F5005F12D0B1F5205F13D03F
S31500002940B1F5805F02D00020BDE8F08749EA0008B3
S315000029501FFA88F0BDE8F0870C26114C282706E000
S315000029600626104C502702E00F4C0226A0272546CB
S31500002970AA469AF8000041463A46FFF7ABFF0135F2
S31500002980002808DB9AF8008049EA080949EA00208D
S3150000299080B2BDE8F0872B1BB342E9DBD3E700BF6B
S315000029A0A8110800B4110800A611080041F2CE23B0
S315000029B0994203D1431E0D2B03D909E0C82802D939
S315000029C006E00E2807D00523584300EB5100704758
S315000029D04FF0FF30704740F6B41070472DE9F041D4
S315000029E0DFF8308006460F46002434F80850354399
S315000029F06FEAC5456FEAD545ADB2284600F00CF83A
S31500002A00874203D00234082CEFD1FF252846BDE8C3
S31500002A10F08100BF9611080038B500F46053B3F595
S31500002A20805F044601D1C0B238BDB3F5405FC0F344
S31500002A30022505D100F00F04064B5021185D03E076
S31500002A40FFF726FF0146E0B22A46BDE83840FFF709
S31500002A5039BF00BFB411080000F46053B3F5805FBE
S31500002A6010B5044607D0FFF7D7FF04F4404440F4FE
S31500002A7080500443A4B2204610BD00BF10F440426B
S31500002A8000F4605306D1B3F5805F20D0B3F5C05F84
S31500002A9034D124E0B2F5404F30D1B3F5405F08D1D0
S31500002AA000F00F03052B29D8C0F30313052B20D9FB
S31500002AB024E000F44052B2F5805F02D0B2F5005F28
S31500002AC01CD1C2B2E02A19D8B3F5805F04D110F444
S31500002AD0E06F13D100207047B3F5C05F04D100F456
S31500002AE0E060B0F5807F08E000F42053B3F5005FA6
S31500002AF0F0D100F4E060B0F5407FEBDD01207047D7
S31500002B0073B504460D46FFF7B9FF00285FD114F4EC
S31500002B10404307D12F4BE6B22F4A0E2E8CBF1646E6
S31500002B201E460BE0B3F5404F07D12A4BE6B22B4ABF
S31500002B300E2E94BF16461E4600E0264E2046FFF790
S31500002B406BFF04F46052B2F5805F034607D1009034
S31500002B5014212846224A3346FEF7E6FC20E0B2F569
S31500002B60405F1FD0D0121F49B2F5C05F51F8201048
S31500002B700ED11D4A04F47C541C492846B4F5C85F9E
S31500002B8014BF0C46144614218DE81800184A04E0B8
S31500002B90184A28460191142100933346FEF7C4FCD7
S31500002BA0284615E004F00F02052AC4F303148EBF6D
S31500002BB000211149895C052C88BF002228469CBF4C
S31500002BC00D4A125D8DE8060014210C4AE6E7002046
S31500002BD002B070BD73EB09007B4009007E4009001E
S31500002BE081400900C41108002674090003A40900E5
S31500002BF0864009008D400900B4110800954009007F
S31500002C0038B505460C46FFF77BFF28B92046142148
S31500002C10024A2B46FEF788FC204638BDA440090030
S31500002C2000F46053B3F5405F10B5044602D0B3F527
S31500002C30205F01D100F018F800F46053B3F5005F8F
S31500002C400DD1C3B200F4E060B0F5007F32BF043BA3
S31500002C500433A0F50070034C18430443A4B2204685
S31500002C6010BD00BF00D8FFFF00F46053B3F5005F4E
S31500002C7010B5044622D0B3F5405F0AD100F00F002C
S31500002C80FFF73EFE04F4E06444F46044204384B25B
S31500002C9014E0B3F5205F10D100F4E064B4F5806F62
S31500002CA0C3B232BF083B0833A4F580641C436FEA05
S31500002CB0C4446FEAD444A4B200E0FF24204610BD09
S31500002CC030B5032485B0039002910398DD22029962
S31500002CD0FFF7C8F8054648B10923009403A90193F4
S31500002CE002AA044B00F06EF80028EED0284605B084
S31500002CF030BD00BFEC400900F0B5154685B01E4654
S31500002D000390029103270398DD220299FFF7AAF8A0
S31500002D100446D0B10223009703A9019302AA0C4BE3
S31500002D2000F050F80028EED061780231052905D967
S31500002D30A379AB4202D1B31C994206D0039B0B4444
S31500002D400393029B591A0291DCE7204605B0F0BDB9
S31500002D507029090030B5032485B0039002910398C9
S31500002D60DD220299FFF77EF8054648B1012300945B
S31500002D7003A9019302AA044B00F024F80028EED020
S31500002D80284605B030BD00BF7029090030B50324C0
S31500002D9085B0039002910398DD220299FFF762F84D
S31500002DA0054648B10423009403A9019302AA044BE3
S31500002DB000F008F80028EED0284605B030BD00BF68
S31500002DC070290900F8B5069D1746427804469542D3
S31500002DD00E460ADB637802331C44336800201A1B54
S31500002DE03B6813443B603460F8BD023019462A46FE
S31500002DF0FEF7A8FA0028EDD125449DF81C30AA78E4
S31500002E009A42E7D10120F8BD30B5032910DD847858
S31500002E10C378057843EA0423447844EA05249442B7
S31500002E2003F1040301D18B4203DD1844C91AECE710
S31500002E30002030BD70B50C461146032205461E46DD
S31500002E40FEF780FAA8B9EB78013B042B26D8DFE819
S31500002E5003F0070325050B00022307E0042305E022
S31500002E60E6B10120208070BDC6B103232380012076
S31500002E7070BD28460A490322FEF764FA70B96EB19E
S31500002E80EB780833092B05D00A2B05D0082B06D181
S31500002E900723EBE70823E9E70923E7E7002070BDEE
S31500002EA06C29090070B50C461646254903220546CD
S31500002EB0FEF748FA90B9EB78062B3ED8DFE803F028
S31500002EC0330A0C04070A0C0044F2400332E04FF4C4
S31500002ED081432FE040232DE080232BE0284619492B
S31500002EE00322FEF72FFA20B9EB78012B26D14022D8
S31500002EF01DE0284614490322FEF724FA30B9EB7880
S31500002F00E3B90EB9102315E0082313E028460F494C
S31500002F100322FEF717FA80B9EB78012B06D002D30D
S31500002F20022B06D070BD0120206070BD02222260F7
S31500002F3001E004232360012070BD002070BD00BFA6
S31500002F4074290900EC4009006C2909007029090060
S31500002F5038B503220C460E490546FEF7F3F9EB7821
S31500002F6010B9022B13D808E0052B0FD8DFE803F0C1
S31500002F700305080E0A05002305E00120206038BD80
S31500002F80022300E004232360012038BD002038BD61
S31500002F906C29090010F4747F0CBF002001207047D3
S31500002FA010F00F0018BF0120704700BF4BF6FF73EB
S31500002FB00340402B0BD0802B09D0102B07D0B3F544
S31500002FC0807F04D0B3F50073584258417047012002
S31500002FD0704700BF80B2431E9BB2012B08D9082858
S31500002FE006D0B0F1040CDCF1000050EB0C00704789
S31500002FF0012070470138C0B2092802D8024B185C7C
S3150000300070470020704700BF564109002DE9F04F78
S315000030101B4E87B003AC824689463068904671687D
S315000030209B4603C403A8337A119D2370129FFEF7B3
S31500003030C5FA03A902462846FEF796F903A8FEF745
S31500003040BDFA5146062204462818FEF78DF9A01D42
S31500003050494628440622FEF787F900234046019395
S3150000306059462A4604F10C03009701F05DF91098C1
S3150000307039461022FEF778F907B0BDE8F08F00BF99
S31500003080C24009002DE9F04FBFB02F4C04AD904669
S315000030904B9E83468A46994604F110022F462068C5
S315000030A0083454F8041C2B46944203C31D46F6D13B
S315000030B02068A28818605946A379AA80AB71524647
S315000030C00623002000F048F81EAC062201462046E2
S315000030D0FEF74AF9594652460623012000F03CF80D
S315000030E006220146A01DFEF73FF949464246202327
S315000030F0002000F031F82022014604F10C00FEF712
S3150000310033F9202349464246012000F025F82022C3
S31500003110014604F12C00FEF727F93846FEF74EFA71
S3150000312000944C220AAC01923A46499902940396BD
S315000031300346489801F0D0F84A9821463246FEF7F1
S3150000314013F93FB0BDE8F08FF04009001346014A7D
S31500003150FFF770BE7429090070B500249C420DD09B
S315000031600D5D165DB54201D10134F7E718B1AE42E7
S3150000317088BF114602E0AE4238BF1146084670BD10
S315000031802DE9F043254CB9B007460E462068904617
S31500003190029002A8439DA2889946A379ADF80C2017
S315000031A08DF80E30FEF70AFA02A9024618A8FEF7B5
S315000031B0DBF802A8FEF702FA49462022044618A8C0
S315000031C02044FEF7D1F818AB04F12000414618441C
S315000031D02022FEF7C9F818AB04F14000394618441E
S315000031E00622FEF7C1F818AB314604F1460004AEDC
S315000031F018440622FEF7B8F84098419918AA04F137
S315000032004C030096019501F0F7F8429831462A469C
S31500003210FEF7AAF839B0BDE8F08300BFE540090023
S315000032202DE9F04317463B4ABBB03B4E81460D465F
S3150000323010689846029093883068B288049002A875
S31500003240429CADF80C30B379ADF814208DF81630E9
S31500003250FEF7B4F902A902461AA8FEF785F802A8F5
S31500003260FEF7ACF93AAB49462A46461C184400F824
S31500003270805C1AA83044FEF777F870193AAB03441D
S31500003280C51C03F8807C1AAB03443F0A41465F70B5
S315000032903AAB1844224600F87E4C1AA82844FEF79A
S315000032A063F825441AA8439928440622FEF75CF8D9
S315000032B006AC302344981AAA0193AB1D4599009495
S315000032C001F09AF8214620224698FEF74DF804A808
S315000032D0FEF774F904A902461AA8FEF745F804A8F1
S315000032E0FEF76CF904F12001102205461AA82844BD
S315000032F0FEF73AF81AA805F110012246002301F05C
S31500003300B5F8479821461022FEF72EF83BB0BDE8E7
S31500003310F08300BFCB400900D14009002DE9F047FA
S31500003320374C07469A46A388BAB020680E46354CF5
S3150000333091460290A288ADF80C30A37920684FF030
S315000033402008049002A88DF8163006ACADF81420BB
S31500003350FEF734F902A902461AA8FEF705F802A8F4
S31500003360FEF72CF93946062205461AA82844FDF729
S31500003370FBFF1AABA81D314618440622FDF7F4FFE1
S3150000338005F10C03484651461AAA0094CDF804806C
S3150000339001F032F8214642464398FDF7E5FF04A8BE
S315000033A0FEF70CF904A902461AA8FDF7DDFF04A8EA
S315000033B0FEF704F94299102205461AA82844FDF79B
S315000033C0D3FF1AAB05F11000394618440622FDF763
S315000033D0CBFF1AAB05F11600314618440622FDF75D
S315000033E0C3FF1AA805F11C012246002301F03EF88E
S315000033F0449821461022FDF7B7FF3AB0BDE8F087A2
S31500003400D8400900DE4009002DE9F04F1A4E87B07A
S3150000341003AC824689463068904671689B4603C471
S3150000342003A8337A119D2370129FFEF7C7F803A9EC
S3150000343002462846FDF798FF03A8FEF7BFF8514657
S31500003440062204462818FDF78FFFA01D494628448A
S315000034500622FDF789FF284604F10C0142465B4629
S31500003460009704F047FA109839461022FDF77CFFC2
S3150000347007B0BDE8F08F00BFC24009002DE9F04F4C
S31500003480BFB02F4C04AD90464B9E83468A46994664
S3150000349004F110022F462068083454F8041C2B4609
S315000034A0944203C31D46F6D12068A2881860594687
S315000034B0A379AA80AB71524606230020FFF74CFE83
S315000034C01EAC062201462046FDF74EFF59465246DF
S315000034D006230120FFF740FE06220146A01DFDF748
S315000034E043FF4946424620230020FFF735FE2022AF
S315000034F0014604F10C00FDF737FF202349464246FA
S315000035000120FFF729FE2022014604F12C00FDF7D9
S315000035102BFF3846FEF752F800944C220AAC019273
S315000035203A464999029403960346489804F042F9AC
S315000035304A9821463246FDF717FF3FB0BDE8F08FA7
S31500003540F04009002DE9F04FD7B04C4D03AC804652
S31500003550DDF880A10F469B462B7A2868914669685C
S315000035605A4603C45146237000202023629EFFF76B
S31500003570F3FD202216AC0EAD01460EA8FDF7F4FEB3
S315000035800EA93F482022FFF7FBF8202351465A4652
S315000035900120FFF7E1FD2022DFF8FCA001462046CE
S315000035A0FDF7E2FE214637482022FFF7E9F81EA97B
S315000035B035484022FFF7E4F820230EA806AA40214A
S315000035C000F054FF06A920223048FFF7D9F803A8D7
S315000035D0FDF7F4FF03A902460EA8FDF7C5FE03A8F2
S315000035E0FDF7ECFF0EA902462948FFF7C9F803A824
S315000035F0FDF7E4FF062341463A460446054400200B
S31500003600FFF7AAFD062201462846FDF7ADFE504605
S3150000361029460622FFF7B4F8A51D0EAB1D44414608
S3150000362006233A460120FFF797FD06220146284663
S31500003630FDF79AFE504629460622FFF7A1F80EAB83
S3150000364004F10C001844494612342EAD0622FDF74B
S315000036508BFE0EA922460F48FFF792F806A80EAA7F
S3150000366023468DE86000202100F0C6FE61982946B9
S315000036703246FDF779FE57B0BDE8F08F4D4109009F
S3150000368007410900134109001F41090025410900AE
S315000036902F410900D196090037410900F0B500F124
S315000036A05F0599B004460F4616462946102268461D
S315000036B0FDF75AFE002110222846FDF7D3FE2046CC
S315000036C03946324604AB00F00DF940B104A869460C
S315000036D01022FDF737FED0F1010038BF002019B0E7
S315000036E0F0BD00BF1346014AFFF7A4BB70290900CD
S315000036F010B5BDE8104000F001B800BF2DE9F34158
S3150000370001F003010129044690461D46099F0A9EC1
S3150000371015D042D300F15F0390F85D60002D08BF1D
S315000037201D4690F85E2041460095102042EA06228A
S31500003730FCF7D6FFD0F1010038BF002030E004F1DD
S315000037402D0110223846FDF70FFE4146102207F1E3
S315000037501000FDF709FE38462021324604F0DCF958
S3150000376008984FF48071324604F0F8F915B1E778FD
S31500003770237903E094F85D7094F85E3043EA0727F6
S315000037805F3420463946324604F0E8F93DB1284612
S3150000379021463A46FDF7E8FD01E0002000E0012061
S315000037A002B0BDE8F08100BF2DE9F34101F003014D
S315000037B0012904461746099E0A9D01D029D265E0D3
S315000037C01BB190F80380037903E090F85D8090F8D0
S315000037D05E3004F12D013046102243EA0828FDF739
S315000037E0C3FD394606F110001022FDF7BDFD304637
S315000037F02A46202104F090F908982A464FF4807151
S3150000380004F0ACF904F15F0041462A4604F0A6F93B
S315000038103AE090F85D2090F85E3043EA02239DB2CC
S315000038200F2D0CD8C218DD2102F1600082F85F105E
S315000038300021C3F10F02FDF715FE102514E06A07FB
S3150000384012D0C218DD21184482F85F105A1C02F00B
S31500003850070260300021C2F10802FDF703FE25F0E1
S315000038600705ADB20835ADB204F15F031020009331
S3150000387039462A46FCF7B6FF40B90835ADB22B0AE1
S3150000388084F85E5084F85D30012000E0002002B02C
S31500003890BDE8F081012200F001B800BF7FB51446F3
S315000038A00325039002910398DD220299FEF7DAFAC6
S315000038B0064640B1009503A9019402AA034BFFF7FF
S315000038C081FA0028EFD0304604B070BD7429090093
S315000038D00139002904DB435C5A1CFF2B4254F7D004
S315000038E0704700BF37B5057C0C46417C022C41EA87
S315000038F0052101F1040109D0032C0ED0012C12D1AF
S3150000390000930E30102300F087FC04E000930E3085
S31500003910102303F0EFFF012006E000930E30102382
S31500003920FCF726FEF7E7002003B030BD2DE9F04195
S3150000393088B00646884617466846002110221D466E
S31500003940FDF790FD002414F0010F18F804000CBFD9
S315000039500022082224F0010308A900FA02F2013429
S315000039600B4433F8201C102C42EA010223F8202CC9
S31500003970E9D12878697801EB0021AA78DFF888C0B8
S3150000398042EA072289B2002304AC3DF8037079406D
S315000039900F0A3CF817707FBAC9B23CF811104F40B5
S315000039A0BFB282EA070119530233102B01D03A46FF
S315000039B0EBE70023BDF80020D10B41EA4202E118F3
S315000039C0CF8917FA82F2023B92B213F10E0FCA8127
S315000039D0F2D130706B787370AB78B370032313F049
S315000039E0010F23F0010208A90A4432F8101C0CBF8B
S315000039F00022082241FA02F2F2540133102BEED1D2
S31500003A0008B0BDE8F08100BFE4110800826A2DE924
S31500003A10F0410E4612F00301074625D00B4600245E
S31500003A200133F818032B80F82B4003EB0200C1EB9F
S31500003A300000F5DD97F82D804FEA084897F82C30FE
S31500003A4048EA0368B86297F82F30384648EA030810
S31500003A5097F82E30D7E9084548EA032800F030F8F1
S31500003A60E8FB0045C7E90845D7E908454FF0FF32AE
S31500003A70002304EA02000F2405EA0301A5FB04451E
S31500003A80001B61EB05014D426FF00E04CF1704FBDE
S31500003A900757A1FB044524183D4445F10005012DB7
S31500003AA008BF102C02EA040200D30F3A130EF2707C
S31500003AB03370130C7370130AB370BDE8F08100BF46
S31500003AC07FB5856A0446013DC5F38106B6B92D1159
S31500003AD0314610226846FDF7C5FC2B0A8DF80F50BB
S31500003AE010208DF80E302B0C2D0E8DF80D30214642
S31500003AF06A4623188DF80C50FCF7E0FDB60006F177
S31500003B0010032344997809025A7841EA0241DA7887
S31500003B1041EA02032644307C43EA006004B070BDEB
S31500003B2010B510220446FDF71FFC00230022C4E94D
S31500003B3008230023A36210BD2DE9F843836A0646D5
S31500003B408846174603F00303002F2BDD013318F8D0
S31500003B50011BF218032B82F82B1007F1FF37B26A0C
S31500003B6002F10102B26202DC002FEFD11AE096F8F0
S31500003B702D904FEA094996F82C3049EA03693046F8
S31500003B8096F82F3049EA030996F82E30D6E908450B
S31500003B9049EA0329FFF794FF0023E9FB0045C6E93C
S31500003BA00845D1E7BDE8F8832DE9F0438FB081469B
S31500003BB0884617461846294908221C46169EFDF7D0
S31500003BC0C1FB054650B1204625490822FDF7BAFB40
S31500003BD0002814BF00256FF000053BE0331202A851
S31500003BE049468DF800308DF80160FFF799FF02A86D
S31500003BF041460622FFF7A0FF02A839460622FFF734
S31500003C009BFF02A869460222FFF796FF02A82146FB
S31500003C100822FFF791FF02A804F10C010422FFF726
S31500003C208BFFA6F1100202A804F11001FFF784FF32
S31500003C3002A801A9FFF7EAFE04F1080001A904227F
S31500003C40FDF780FB28B1179801A90422FDF78CFB2C
S31500003C5000E0012528460FB0BDE8F083EC1308000C
S31500003C60E41308002DE9F0478EB086469A46179E63
S31500003C708946199C714602A83719103790463B0AA7
S31500003C80189D8DF800308DF80170FFF749FF02A8E6
S31500003C9049460622FFF750FF02A841460622FFF7D3
S31500003CA04BFF02A869460222FFF746FF02A8114908
S31500003CB00822FFF741FF02A851460422FFF73CFF06
S31500003CC002A816993246FFF737FF2DB124B102A894
S31500003CD029462246FFF730FF02A801A9FFF796FE04
S31500003CE01A9801A90422FDF73FFB01200EB0BDE89A
S31500003CF0F08700BFEC1308004B781B042DE9F04158
S31500003D000E784C79CA7843EA06638E7824048D7956
S31500003D1013430A7944EA0264CA7943EA0623144340
S31500003D2044EA052484EA131606F00F36744083EA43
S31500003D300616002784EA164292B2544086EA0242E8
S31500003D4082EA940505F033356A4084EA850582EAFD
S31500003D50152303F0FF135A4085EA03234FEAF37352
S31500003D6083EA020404F0AA3462405C40634B4FEAE3
S31500003D70F272066802374568102F86EA341684EA1E
S31500003D80050505F03F0806F03F0C08F5E0780CF550
S31500003D90C07C00F1100053F8288053F82CC088EA44
S31500003DA00C0CC6F3052808F5807853F828808CEAB1
S31500003DB0080CC6F3054808F18008C6F3056653F8F3
S31500003DC0288053F826608CEA080C8CEA060CC5F3AA
S31500003DD0052606F5A07653F826608CEA060CC5F390
S31500003DE0054606F1C006C5F3056505F1400553F81D
S31500003DF026608CEA060C53F825608CEA060550F816
S31500003E00046C82EA050250F8085C82EA060606F0AF
S31500003E103F0C0CF5E07C85EA321553F82CC084EA99
S31500003E200C0C05F03F0404F5C07453F824408CEAEA
S31500003E30040CC6F3052404F5A07453F824408CEA58
S31500003E40040CC6F3054404F1C004C6F3056606F186
S31500003E50400653F8244053F826608CEA040484EAAA
S31500003E600604C5F3052606F5807653F8266084EA2F
S31500003E700604C5F3054606F18006C5F3056553F845
S31500003E80266053F8255084EA060484EA05047FF484
S31500003E9070AF4FEA740484EA020000F0AA30424090
S31500003EA044404FEA720284EA122303F0FF135C4097
S31500003EB082EA032284EA920303F033335C4082EA07
S31500003EC0830383EA144080B2434084EA004083EAD5
S31500003ED0101202F00F32534080EA0212CB71100E1C
S31500003EE0CA700870100C4870100A1A0E88700A7191
S31500003EF01A0C4A711A0A8A71BDE8F081F413080097
S31500003F002DE9F0413D4F9EB03D4D90460023DA5DD0
S31500003F10013A3B4ED4100C5D02F0070255F8222000
S31500003F2014420CBF0024012402AA9C540133382BEE
S31500003F30EDD1344F05460024002108226846FDF7DE
S31500003F4091FAC4F10F03B8F1000F08BF23462E4AB9
S31500003F50D15C0023A1F11C0C5A181B2BCCBF3820B6
S31500003F601C208242A8BF0CEB03021EA8024412F8D2
S31500003F70700C10AAD0540133382BEDD10023062043
S31500003F801EAAD95D114411F8392C6AB193FBF0F1E0
S31500003F901EAA0A4400FB113156F821C012F8781CFB
S31500003FA041EAAC0102F8781C0133302BE8D19DF8C8
S31500003FB002301B049DF8002043EA02639DF80620A8
S31500003FC013439DF8042043EA02239DF8012001349F
S31500003FD02B609DF803301B0443EA02639DF807201B
S31500003FE013439DF80520102C43EA022305F108052A
S31500003FF045F8043CA0D11EB0BDE8F081141C0800B1
S31500004000F41B08004C1C08007C1C08007FB51546F4
S315000040101E468DF0DBFD68B103699DF82C20099CD6
S31500004020294600940A9C0292324601945C69089BD8
S31500004030A04701E04FF0FF3004B070BD73B50B46EA
S315000040400446154601B12AB9274B1B68DC073CD547
S31500004050264837E0826B7AB9C66B16BBA163C56387
S315000040604D62009669622146406822688DF076F9B5
S31500004070E06010B3304635E08A4212D1C16BA942E6
S315000040800FD0866C0023B34222DA216C01EB830049
S3150000409051F8231001330029F5D1056018466A62EC
S315000040A020E011490968C8070FD58DE82800104996
S315000040B0E36B1048FDF7FAF907E00B4B1B68D907CD
S315000040C003D50D480A49FDF7F1F94FF0FF3009E035
S315000040D0054A1268D207F8D5054932460748FDF762
S315000040E0E5F9F2E702B070BDEC071800613A090085
S315000040F0253B0900A93A0900DC3A09007D3A090086
S31500004100C0688DF033B900BF10B50446C06B0369B3
S315000041105B68984710B9012384F8463010BD00BF8C
S3150000412038B50B4679B1C16B8B420CD0856C00213A
S31500004130A9420ADA046C54F82140A34201F10104B1
S315000041400FD02146F4E7002038BD074A1268D2078F
S3150000415004D506481A460649FDF7A8F94FF0FF3080
S3150000416038BDD475084638BDEC0718003B3A09003F
S31500004170323B090037B5034601B12AB9204B1B680B
S31500004180D90738D51F4808E0846B54B9C06B30BBDB
S315000041901B4B1B68DA072ED51B481C49FDF786F911
S315000041A029E08C421BD1C06B904218D09C6C002039
S315000041B0A0420BDA196C01EB800551F82010013092
S315000041C09142F5D100232B60536216E00C4B1B681D
S315000041D0DB0710D50D490E48FDF768F90BE00848D6
S315000041E00068C50707D58DE8060022460948074935
S315000041F0DB6BFDF75BF94FF0FF3003B030BD00BF5E
S31500004200EC071800613A0900F53A09002C3A090052
S315000042100C3B0900A93A09002DE9F047C0B0402B34
S315000042208246894617461C46DDF820810DDD26A804
S3150000423002F080F93946224626A802F08DF9684632
S3150000424026A902F02DF910246F4604AE0021412262
S3150000425015AD3046FDF706F9002141222846FDF747
S3150000426001F9224639463046FDF77EF822462846B1
S315000042703946FDF779F80024335D83F0360333556C
S315000042802B5D83F05C032B550134402CF4D126A81A
S3150000429002F050F926A83146224602F05DF94A4658
S315000042A026A8514602F058F926A9404602F0F8F829
S315000042B026A802F03FF926A82946224602F04CF924
S315000042C026A84146102202F047F9404626A902F0E8
S315000042D0E7F840B0BDE8F0872DE9F041A2B080468E
S315000042E00F46299E1C469D197F2D17DC23B11146CA
S315000042F002A81A46FDF738F802A828993246204443
S31500004300FDF732F82A9B009340462B9B39460193D2
S3150000431002AA2B4600F070F8002001E04FF0FF30B3
S3150000432022B0BDE8F08100BF2DE9F04FCDB04029A5
S3150000433083460C4692469946569FDDF85C810DDD14
S3150000434030A804F0E9FB5946224630A804F00CFCDC
S31500004350684630A904F056FB2024EB4610AE002137
S31500004360402220AD3046FDF77DF800214022284648
S31500004370FDF778F8224659463046FCF7F5FF224607
S3150000438028465946FCF7F0FF0024335D83F03603D8
S3150000439033552B5D83F05C032B550134402CF4D14F
S315000043A030A804F0B9FB3146224630A804F0DCFB05
S315000043B04A46514630A804F0D7FB30A9384604F0E7
S315000043C021FB30A804F0A8FB2946224630A804F0B9
S315000043D0CBFB394630A8202204F0C6FB384630A96C
S315000043E004F010FBB8F1000F02D02023C8F800300B
S315000043F04DB0BDE8F08F00BF2DE9F04FABB00746DA
S315000044008846359D11460DF12A001A461C46FCF7D2
S31500004410ABFF2AAAEE0022441F3502F87E6C202349
S31500004420361204F1040995FBF3FB0024349DA246E1
S3150000443002F87D6C02AE5C4514DA0134384623126C
S3150000444041468DF829300AAA4B468DE840048DF87E
S315000044502840FFF769FF284631462022FCF784FFF3
S315000044602035E8E72BB0BDE8F08F00BF70B59CB0F3
S315000044700D4606466846144604F04EFB31462A466B
S31500004480684604F071FB2046694604F0BBFA1CB08E
S3150000449070BD00BF8842F0B51DD8E2B1DBB10D1A80
S315000044A000246D0801D00134FBE70127013807FA23
S315000044B004F6C6F1000C35180CEA05052E448E42AA
S315000044C005D9013C07FA04F14D4208440540156040
S315000044D000201C60F0BD4FF0FF30F0BD072870B51E
S315000044E00FD8151F1B2D0CD80126551C06FA05F5ED
S315000044F0013D15EA010404D1B2408CF0D7FE2046F6
S3150000450070BD4FF0FF3070BD70B50D46044605F026
S315000045101FFE0646204606F0A1F98DF0CFFA40F6BA
S315000045203E010246204606F0ABFA012231460262FF
S31500004530C5622046BDE8704006F0B0BA30BF70478D
S315000045402DE9F04707460E4605F002FE824638463C
S3150000455006F084F98DF0B2FA40F63E01024638467E
S3150000456006F08EFA0446384605F0FAFD062805D808
S315000045703C48FCF79BFF4FF0FF356CE06168C1F3E8
S315000045800231022901D038483EE02568C5F30325EB
S31500004590042D14BF01250225002E5CD0AE4259D051
S315000045A0022E05D931462A463048FCF77FFFE2E75E
S315000045B0D4F8E08108F08473B3F1847F0BD1D4F88A
S315000045C0E0314FF0FF3903F08473B3F1847F1ED0DE
S315000045D02748294618E0D4F8E031412040F2DD5959
S315000045E043F48173C4F8E03101F0E6F9D4F8E03120
S315000045F003F08473B3F1847FE1D0B9F10109DED011
S315000046000A2001F0D9F9F1E7FCF750FFB3E70023E0
S31500004610A269022EA3614FF00053C4F81090A36163
S31500004620236823F4706308BF43F48063236030BFBC
S31500004630012E236908BF28F480784FF0005318BF75
S3150000464048F48078236135461FFA88F3A261C4F8DE
S31500004650E03100E000253846514606F01FFA2846AC
S31500004660BDE8F087DE360900113709003F3709003B
S315000046707637090010B5044606F0F0F801462046E4
S31500004680BDE8104000F058BA00207047436970B585
S31500004690142B0C4606DD06F0E1F80D4B256A1B6867
S315000046A01D4000E041258DF031FA00F10C0400F1C7
S315000046B0480654F8083C33B154F80C1C294002D083
S315000046C054F8040C98470C34B442F2D170BD00BFC4
S315000046D00C08180070B504460E4600F03FF800219D
S315000046E005462046FFF72CFF012805D12046314616
S315000046F0BDE8704000F0BCBC63692046222B0ADD91
S31500004700E3695A0607D540F62701002205F0F2FDB7
S315000047100146204600E000214FF4CC6205F01EFD64
S315000047200523036020466369222B0ADDE3695B06E5
S3150000473007D540F62701002205F0DCFD014620469C
S3150000474000E0002140F2646205F008FD03684FF4C2
S315000047507A70DBB2B5FBF3F5684370BD004870476D
S3150000476000A60E0038B5836840F63C0104468B422D
S315000047702CD1C368072B03D023F00203092B25D1C4
S3150000478049F218239A4209D049F640439A4207D083
S315000047900F481049BDE83840FCF788BE0E4D00E0D2
S315000047A00E4D63692046222B0ADDE3695B0607D5B9
S315000047B040F62701002205F09DFD0146204600E057
S315000047C0002140F2DC6205F0C9FC056038BD00BF7F
S315000047D06041090013420900B60101009901010078
S315000047E02DE9F3470026044688461746994635467E
S315000047F04FF0010A0AFA06F313EA090F2AD0636991
S315000048002046222B0ADDE3695A0607D540F6270122
S31500004810002205F06FFD0146204600E000214FF41E
S31500004820C46205F09BFC066020466369222B0ADD04
S31500004830E3695B0607D540F62701002205F05AFD1D
S315000048400146204600E0002140F2246205F086FC85
S3150000485003681D4301361F2ECCD19DF8283053B175
S315000048604DB101232046009341463A462B46FFF7B9
S31500004870B7FF284300E0284602B0BDE8F08700BF36
S3150000488030B50D4B446C0D4D012C08BF2B4690F8EE
S315000048906043012C90F8685314BF1C46D0F85C4363
S315000048A0012D1ABF43F0F87343F00803D0F86433C0
S315000048B00C60136030BD00BFF7FF0B00F6FF0B0066
S315000048C02DE9F04F1D46436985B09046222B4FF0E7
S315000048D0000204460F460292039209DDC3695B0695
S315000048E006D540F6270105F005FD0146204601E004
S315000048F0204600214FF4C46205F030FC05602046D6
S31500004900236A0C2B636915DD222B0ADDE3695E063B
S3150000491007D540F62701002205F0ECFC01462046AB
S3150000492000E000214FF4C56205F018FC0368C3F3EC
S31500004930094914E0222B0ADDE369590607D540F63A
S315000049402701002205F0D6FC0146204600E00021A2
S315000049504FF4C56205F002FC0368C3F307294FF064
S31500004960010A00260AFA05F3009620463946424611
S31500004970FFF736FF05460AFA06F32B4208D0CDF8B4
S3150000498000A0204639464246FFF72AFF25EA0005E1
S3150000499001361F2EEFD1204602A903AAFFF770FFAA
S315000049A0029B002625EA030A4FF0010B35460BFA57
S315000049B005F313EA0A0F08D0204639464246EBB201
S315000049C0FFF77EFF864238BF064601351F2DEED122
S315000049D009F10200304405B0BDE8F08F436937B5F0
S315000049E0222B04460ADDC3695B0607D540F627017C
S315000049F0002205F07FFC0146204601E0204600210A
S31500004A004FF4CC6205F0AAFB63692046222B0ADD2F
S31500004A10E3695D0607D540F62701002205F06AFC2A
S31500004A200146204600E0002140F2646205F096FB54
S31500004A3069460822E06BFCF7E7FF1849024618486A
S31500004A40FCF734FD63692046222B0ADDE36959062B
S31500004A5007D540F62701002205F04CFC014620460A
S31500004A6000E000214FF4C06205F078FB6369222B59
S31500004A70056820460ADDE3695A0607D540F6270190
S31500004A80002205F037FC0146204600E000214FF4E5
S31500004A90C06205F063FB056003B030BDE24109006A
S31500004AA08341090038B5044605F052FB002105464E
S31500004AB0204605F0F3FF2046294605F0EFFF0148A2
S31500004AC038BD00BF005A6202F7B51E464369044668
S31500004AD00F46222B15460BDDC369590608D540F64D
S31500004AE02701002205F006FC00970146204602E059
S31500004AF02046002100974FF0FF334FF4CA6205F0BD
S31500004B00DDFE6369222B0CDDE3695A0609D540F602
S31500004B1027012046002205F0EDFB009601462046BF
S31500004B2002E020460021009640F254622B4605F032
S31500004B30C5FE03B0F0BD00BF036A70B5042B044682
S31500004B400E4603DCBDE8704000F092BA05F000FBAB
S31500004B5000210546204605F0A1FF314602462046C3
S31500004B60FFF7B8FD29460646204605F097FF304672
S31500004B7070BD00BF2DE9F8430446894605F0E8FA02
S31500004B8000210646204605F089FF804620468DF026
S31500004B907DF80746204605F0E3FD494642467B7808
S31500004BA005462046FFF78CFE0B233146023058435C
S31500004BB005F5742303F23F23B3FBF5F54543204681
S31500004BC005F06CFF0A23B5FBF3F080B2BDE8F8836D
S31500004BD0F0B51746002285B002211346064600F0BE
S31500004BE059F9C0F30215C4093DB1002213463046F7
S31500004BF0032100F04FF9034600E02B4642F21076FF
S31500004C007E4365B14FF4000202A8009203A9324622
S31500004C10FDF7E2F9029B9DF80F5045EA032574B1B2
S31500004C20EB43B3FBF4F39E4206DD06483A460649DB
S31500004C30FCF73CFC002003E006FB045000E02046A5
S31500004C4005B0F0BDC5410900FD41090038B51C4657
S31500004C501D6800F003F82060401B38BD38B5436975
S31500004C600446222B0ADDC3695A0607D540F62701FA
S31500004C70002205F03FFB0146204601E020460021C8
S31500004C8040F2146205F06AFA6369222B0568204631
S31500004C900ADDE3695B0607D540F62701002205F029
S31500004CA029FB0146204600E0002140F2146205F08F
S31500004CB055FA03689D4214D063692046222B0ADD0B
S31500004CC0E3695D0607D540F62701002205F012FBD1
S31500004CD00146204600E0002140F2146205F03EFA4B
S31500004CE00568284638BD00BFF8B5484F04463A68FF
S31500004CF0002A40F089804369222B09DDC3695B06DF
S31500004D0006D540F6270105F0F5FA0146204601E0F2
S31500004D102046002140F2146205F020FA6369222B36
S31500004D20056820460ADDE3695E0607D540F62701D9
S31500004D30002205F0DFFA0146204600E0002140F29D
S31500004D40146205F00BFA03689D4214D0636920468D
S31500004D50222B0ADDE369590607D540F62701002212
S31500004D6005F0C8FA0146204600E0002140F2146230
S31500004D7005F0F4F9056842F2107000F01DFE636953
S31500004D802046222B0ADDE3695A0607D540F627019D
S31500004D90002205F0AFFA0146204600E0002140F26D
S31500004DA0146205F0DBF96369222B066820460ADDEA
S31500004DB0E3695B0607D540F62701002205F09AFA5B
S31500004DC00146204600E0002140F2146205F0C6F9D3
S31500004DD003689E4214D063692046222B0ADDE369EC
S31500004DE0590607D540F62701002205F083FA014649
S31500004DF0204600E0002140F2146205F0AFF9066893
S31500004E00751B642675433D603868F8BD8808180030
S31500004E10014B1860704700BF8808180070B504463B
S31500004E200E4605F095F900210546204605F036FEAA
S31500004E3031460246204600F013FA2046294605F080
S31500004E402DFE012070BD00BF01207047F8B5044655
S31500004E50174605F095FC0646D0B9204605F078F9C8
S31500004E6031460546204605F019FE63692D2B09D10A
S31500004E70D0F8F43017B123F0007301E043F000736B
S31500004E80C0F8F43020462946BDE8F84005F006BED5
S31500004E90F8BD00BFF7B51E46436904460F46222BF0
S31500004EA015460BDDC3695B0608D540F627010022CF
S31500004EB005F020FA00970146204602E02046002130
S31500004EC000974FF0FF334FF4CC6205F0F7FC6369AF
S31500004ED0222B0CDDE3695F0609D540F62701204643
S31500004EE0002205F007FA00960146204602E0204619
S31500004EF00021009640F264622B4605F0DFFC03B009
S31500004F00F0BD00BF436913B5222B04460DDDC3690E
S31500004F105A060AD540F62701002205F0EBF94FF4B0
S31500004F20806300930146204604E04FF480632046E8
S31500004F30002100934FF4C06205F0C0FC02B010BD22
S31500004F40704700BFF7B51E46436904460F46222B3D
S31500004F5015460BDDC3695B0608D540F6270100221E
S31500004F6005F0C8F900970146204602E020460021D8
S31500004F7000974FF0FF334FF4CB6205F09FFC636957
S31500004F80222B0CDDE369580609D540F62701204699
S31500004F90002205F0AFF900960146204602E02046C1
S31500004FA00021009640F25C622B4605F087FC03B0B8
S31500004FB0F0BD00BF042A2DE9F74F0446994605D0F7
S31500004FC000252F46AA46A8462E4606E008250327B2
S31500004FD04FF0010A4FF007081D266369222B0CDDEE
S31500004FE0E369580609D540F627012046002205F058
S31500004FF081F900230093014601E0002100914FF062
S31500005000FF3320464FF4CB6205F058FC636908FA7B
S3150000501006FB222B08EA09080EDDE36959060BD5C3
S3150000502040F627012046002205F064F908FA06F644
S3150000503000960146204604E008FA06F620460021BE
S31500005040009640F25C625B4605F038FCBAF1000F50
S315000050500BD005EA09032046012145FA07F23B4138
S3150000506003B0BDE8F04FFFF76DBF03B0BDE8F08FAA
S31500005070F8B5044605F06CF800210546204605F013
S315000050800DFD63692046222B0ADDE3695E0607D51E
S3150000509040F62701002205F02DF90146204600E0E2
S315000050A000214FF4CC6205F059F804230360204632
S315000050B06369222B0ADDE369590607D540F6270105
S315000050C0002205F017F90146204600E0002140F2D3
S315000050D0646205F043F806682046FFF73FFB294661
S315000050E0C6F307460746204605F0D8FCB7FBF6F799
S315000050F04FF47A707843F8BD704700BF73B50E461B
S31500005100154601AB6A464FF40061044605F0D4FC2F
S3150000511032462B4601462046FFF760FC20469DE8B6
S31500005120060005F0FFFB02B070BD00BF38B543694D
S315000051300446222B0ADDC3695A0607D540F6270125
S31500005140002205F0D7F80146204601E0204600215E
S315000051504FF4C36205F002F86369222B0568204606
S3150000516045F000750ADDE3695B0607D540F62701C1
S31500005170002205F0BFF80146204600E000214FF46A
S31500005180C36204F0EBFF056020466369222B0ADD4B
S31500005190E3695D0607D540F62701002205F0AAF867
S315000051A00146204600E0002140F21C6204F0D6FFD2
S315000051B06369222B0568204645F000750ADDE36920
S315000051C0590607D540F62701002205F093F8014657
S315000051D0204600E0002140F21C6204F0BFFF05609B
S315000051E038BD00BF2DE9F3479DF828A000250446E9
S315000051F08846174699460195FFF730FD02AE46F8F8
S31500005200040D63692046222B0ADDE369590607D59A
S3150000521040F62701002205F06DF80146204600E021
S3150000522000214FF4C26204F099FFBAF1010F4FEA70
S315000052304513006801D108B90DE048B94B4509D2BC
S31500005240204641463A463346FFF700FD0544D8E777
S31500005250002000E001200B9A136002B0BDE8F08741
S315000052602DE9F04F002385B004AC06460F46904664
S315000052709A4643F6972944F8043D012330468DE8C3
S3150000528018003946424643F69823FFF7ABFF05461A
S3150000529008B1012011E000904023019430463946C0
S315000052A04246DDF80CB0FFF79DFF039B5B449A4432
S315000052B010B9CA45E1D9ECE7284605B0BDE8F08F3C
S315000052C038B5034C206805688CF030FC256038BD85
S315000052D048081800024B1868024B1968FFF7D6B940
S315000052E0240818004C08180005F032B805F040B93B
S315000052F0022970B5154605DC18481168BDE87040EE
S31500005300FCF7D4B8002150680A46FCF7E7FD0021F7
S315000053100A460446A868FCF7E1FD0646E86820B19F
S3150000532000210A46FCF7DAFD00E0012005469DB1A2
S31500005330042E03D10A482146226808E0022E03D132
S3150000534008482146228802E0074821462278FCF7D1
S31500005350ADF83444013DEAE770BD00BFF8350900F9
S315000053600F3609001B3609002736090038B50446F2
S31500005370C0B1836AB3B1C36A0BB9836205E010306A
S31500005380616A2346084A8CF0D9FBA36894F830502A
S315000053900BB120469847012D04D12046BDE8384080
S315000053A000F0D0B838BD00BF6D530000F8B50F4B04
S315000053B01C682068C0B100F01DF80D4B00200122CA
S315000053C01F4606461A70236813B900233B70F8BDC2
S315000053D01D7C012DF9D11A682260D8689A681E745E
S315000053E09E6090472846EEE7F8BD00BF54081800B7
S315000053F05008180038B5114B1B681C6800F06EFA8F
S315000054000F4A13681060C31AB4B1626822B90D4A14
S3150000541000201178012502E0002BF8D138BD626822
S315000054209A4207D89B1A606001B925742468002C3B
S31500005430F5D138BDD31A636038BD00BF54081800D3
S315000054403C0818005008180010B5034650B101205A
S31500005450DA62986203F110005962034ABDE810400F
S315000054608CF06CBB10BD00BF6D530000C31C23F055
S3150000547003031A1A8A4210B51BD84418E41A24F0FA
S3150000548003040F2C15D90C4A03F1080011682144B6
S31500005490083C1160094A1C60116821441160084AE1
S315000054A011680831116000225A608CF03FFB2046DB
S315000054B010BD002010BD00BF1808180038081800DD
S315000054C068081800094B10B519680B686BB1834260
S315000054D009D102681AB154684068044454600A60ED
S315000054E000229A6010BD1946EFE710BD5408180057
S315000054F008B5836A2BB10023103083610374FFF76C
S31500005500E1FF012008BD00BF022970B506D1506831
S3150000551000210A22FCF79AF8054600E00825002437
S315000055206120AC4209D0461C00F0E4FB0134F6B21F
